:020000040800F2
:10000000400A002021020008291C0008DF1900080E
:10001000251C0008B7080008F520000800000000B3
:10002000000000000000000000000000F91C0008B3
:10003000BB080008000000002B1C0008511D000830
:100040003B0200083B0200083B0200083B0200089C
:100050003B0200083B0200083B0200083B0200088C
:100060003B0200083B0200083B0200083B0200087C
:100070003B0200083B0200083B0200083B0200086C
:100080003B0200083B0200083B0200083B0200085C
:100090003B0200083B0200083B0200083B0200084C
:1000A0003B0200083B0200083B0200083B0200083C
:1000B0003B0200083B0200083B0200083B0200082C
:1000C0003B0200083B0200083B0200083B0200081C
:1000D0003B020008B52000083B0200083B02000874
:1000E0003B0200083B0200083B0200083B020008FC
:1000F0003B0200083B0200083B0200083B020008EC
:100100003B0200083B0200083B0200083B020008DB
:100110003B0200083B0200083B0200083B020008CB
:100120003B0200083B0200083B0200083B020008BB
:1001300000F002F800F065F80AA090E8000C824494
:100140008344AAF10107DA4501D100F05AF8AFF271
:10015000090EBAE80F0013F0010F18BFFB1A43F0A5
:1001600001031847BC500000DC5000000A444FF067
:10017000000C10F8013B13F0070408BF10F8014B06
:100180001D1108BF10F8015B641E05D010F8016B4B
:10019000641E01F8016BF9D113F0080F1EBF10F8AF
:1001A000014BAD1C0C1B09D16D1E58BF01F801CBD2
:1001B000FAD505E014F8016B01F8016B6D1EF9D555
:1001C0009142D6D37047000000230024002500266A
:1001D000103A28BF78C1FBD8520728BF30C148BFAA
:1001E0000B607047642900F09980782900F0D28074
:1001F000732900F02D82002070471FB51FBD10B578
:1002000010BD00F057FA1146FFF7F7FF03F0FEFFAD
:1002100000F075FA03B4FFF7F2FF03BC01F08FFFA3
:100220000948804709480047FEE7FEE7FEE7FEE78A
:10023000FEE7FEE7FEE7FEE7FEE7FEE704480549C6
:10024000054A064B70470000591D0008310100089F
:1002500040040020400A0020400600204006002004
:10026000704700000FB4044910B503AA029800F0CB
:10027000F3F910BC5DF814FB1400002070B50446BF
:1002800085690068C10601D5302600E02026C00738
:1002900007D070BDD4E9012130469047206A401C48
:1002A00020626D1EF6D570BD70B504468569007874
:1002B000C00707D170BDD4E9012120209047206AF2
:1002C000401C20626D1EF6D570BD70B50C4605460B
:1002D000012A05D02878800600D5EA69002302E0CB
:1002E000012305E05B1C934202D2E05C0028F9D1B7
:1002F000A869E618C01AA861286A18442862284626
:10030000FFF7BCFF04E0D5E9012114F8010B904789
:10031000B442F8D32846FFF7C7FF70BD2DE9F0417E
:100320000646002410687529314616A510D0AFF393
:100330000080002802DA404213A507E031688A07EE
:1003400001D512A502E0490704D511A5012401E059
:10035000AFF3008000210A2206F1240709E0B0FB78
:10036000F2FCB0FBF2F302FB1C003030785418466C
:10037000491C0028F3D123462A463046BDE8F04107
:1003800000F0FBB8000000002D0000002B00000072
:100390002000000070B504460D4621461068AFF3FA
:1003A00000802188090502D50F4A7A4402E00E4AEE
:1003B0007A440E32002104F1240305E000F00F0618
:1003C0000009965D5E54491C0028F7D1207800236F
:1003D000000704D5702D02D009B102231132204646
:1003E000BDE8704000F0C9B84A4D00002DE9F05F4B
:1003F000894604464FF0000ADFF824B1FB44C0F8F8
:1004000020A02046E168884700287DD0252806D016
:10041000D4E901219047206A401C2062F1E70025C1
:100420005F462046E16888472028064607DB312ED4
:1004300005D2B81910F8200C08B10543F1E7A80758
:1004400001D525F00405C4F81CA00027C4F818A0A5
:100450002A2E09D0304601F06BFE38B304EB870832
:10046000303EC8F8186019E059F8041B204604EB28
:1004700087029161E1688847012F064618D1E0693B
:10048000002820DA25F020051DE0D8F8180000EB40
:10049000800006EB40003038C8F818002046E168BC
:1004A0008847064601F044FE0028EED1012F0AD00D
:1004B0002E2E08D12046E16888477F1C0646022F71
:1004C00045F02005C4DBA069002803DA404245F06E
:1004D0000105A061E80701D025F01005A6B1A6F13D
:1004E0004100192802D8203645F400654A463146B5
:1004F000204625604D46FFF775FE60B1012807D004
:10050000ED1D25F0070000E007E000F1080978E79D
:1005100005F1040975E730467AE7206ABDE8F09FE7
:10052000204D00004FF0000200B513469446964659
:10053000203922BFA0E80C50A0E80C50B1F12001F6
:10054000BFF4F7AF090728BFA0E80C5048BF0CC0A4
:100550005DF804EB890028BF40F8042B08BF704702
:1005600048BF20F8022B11F0804F18BF00F8012B74
:10057000704770477047704770472DE9F0470D4648
:1005800099469246044600F124080168880604D57D
:10059000E06921F01001216000E00120A84201DDA6
:1005A000471B00E00027A1697A1902EB0900081A2D
:1005B000A0612078C00602D42046FFF75FFE002627
:1005C00008E0D4E901211AF806009047206A401C8F
:1005D000761C20624E45F4DB2078C0060AD5204602
:1005E000FFF74CFE06E0D4E9012130209047206A55
:1005F000401C2062381EA7F10107F4DC07E0D4E9B3
:10060000012118F805009047206A401C2062281E2E
:10061000A5F10105F3DC2046FFF746FE2078000631
:1006200002D50220BDE8F0870120FBE710B5436941
:1006300013B1AFF3008001E0FFF747FE012010BDCA
:10064000127800F124010A7000224A700122EDE7BD
:1006500011684FF0FF32E9E7074B70B50D467B4458
:1006600000F011F80446284600F020F810B14FF0D1
:10067000FF3070BD204670BD5735000001694A1C2F
:1006800002610878704700B58FB0CDE901310021D3
:10069000059105497944CDE9031011466846FFF7F5
:1006A000A5FE0FB000BD0000E5FFFFFF007B00F0DE
:1006B00080007047754600F02BF8AE46050069468D
:1006C000534620F00700854618B020B5FFF7B6FD69
:1006D000BDE820404FF000064FF000074FF0000843
:1006E0004FF0000B21F00701AC46ACE8C009ACE8C4
:1006F000C009ACE8C009ACE8C0098D46704710B528
:100700000446AFF300802046BDE81040FFF782BDED
:1007100000487047DC03002010B50A2000F013F8F1
:100720000446552C01D1002010BD55210A2000F0AF
:1007300036F80A2000F007F80446552C01D10020B5
:10074000F2E70120F0E770B50446002601F008FA50
:100750002546E11704EB11610912B02202EB4101B9
:10076000C8B201F0CBF901F033FAE11704EB1161E3
:100770000912A4EB0121C8B201F0C0F901F028FA76
:1007800001F0EEF9B12001F0B9F901F021FA0020F1
:1007900001F088F9064601F001FA304670BD70B5E7
:1007A00004460E4601F0DCF92546E11704EB116121
:1007B0000912B02202EB4101C8B201F09FF901F029
:1007C00007FAE11704EB11610912A4EB0121C8B289
:1007D00001F094F901F0FCF9304601F08FF901F0D5
:1007E000F7F901F0DBF90A2003F074F970BD2DE987
:1007F000F0410746884615461E46002401F0B0F930
:10080000384601F07BF901F0E3F910B10020BDE8B2
:10081000F081404601F072F901F0DAF908B10020E8
:10082000F5E701F09DF9791CC8B201F067F901F014
:10083000CFF908B10020EAE700240DE0681EA042CD
:1008400004D0012001F02EF9305503E0002001F022
:1008500029F93055601CC4B2AC42EFDB01F09EF9BF
:100860002046D4E710B501F0D9F801F0DFF910BD4A
:100870002DE9F04180460D4616461F46002401F042
:100880006FF9404601F03AF901F0A2F9284601F06B
:1008900035F901F09DF900BF06E0385D01F02EF951
:1008A00001F096F9601CC4B2B442F6DB01F076F9AF
:1008B0000120BDE8F08100BFFEE7704770B5044637
:1008C000002594F82100022803D00420A06301250C
:1008D000C1E02068006820F00E00216808602068F0
:1008E000006820F00100216808605C4920688842A7
:1008F00052D95A4978392068884201D1012047E00D
:10090000564964392068884201D1102040E053499B
:1009100050392068884201D1801539E04F493C396F
:100920002068884201D1801432E04C49283920687F
:10093000884202D14FF480302AE0484914392068B7
:10094000884202D14FF4801022E044492068884256
:1009500001D140041CE042492068884201D10120B5
:1009600016E03F4914312068884201D110200FE081
:100970003B4928312068884201D1801508E0384978
:100980003C312068884201D1801401E04FF480306E
:100990003349091F086051E030497839206888429E
:1009A00001D1012047E02D4964392068884201D1F6
:1009B000102040E0294950392068884201D1801533
:1009C00039E026493C392068884201D1801432E060
:1009D000224928392068884202D14FF480302AE029
:1009E0001E4914392068884202D14FF4801022E059
:1009F0001A492068884201D140041CE01849206847
:100A0000884201D1012016E015491431206888423E
:100A100001D110200FE0124928312068884201D10D
:100A2000801508E00E493C312068884201D18014CD
:100A300001E04FF48030094980394860012084F892
:100A4000210000BF002084F8200000BF606B10B1BF
:100A50002046616B8847284670BD00008000024038
:100A60000804024070B5044600F0B6F90646254673
:100A7000681C10B104480078054400BF00F0ACF9D0
:100A8000801BA842FAD370BD0C0000202DE9F84766
:100A9000024600239C467BE14FF0010808FA03F46C
:100AA000D1F8008008EA0400A0427DD1DFF8F4A26A
:100AB000D1F80480A8EB0A09D0453AD014DCB8F18B
:100AC000030F50D009DCB8F1000F31D0B8F1010F9D
:100AD0001CD0B8F1020F49D120E0B8F1110F18D0A5
:100AE000B8F1120F42D11EE0B9F5881F25D006DCFF
:100AF000B9F5803F20D0B9F5801F37D11AE0B9F59C
:100B0000001F18D0B9F5041F30D117E0D1F80CC080
:100B10002DE0D1F80C8008F1040C28E0D1F80C800D
:100B200008F1080C23E0D1F80C8008F10C0C1EE051
:100B300000BF00BF00BF00BF00BF00BFD1F80880EA
:100B4000B8F1000F02D14FF0040C0BE0D1F808808F
:100B5000B8F1010F03D14FF0080C146102E04FF01F
:100B6000080C546103E04FF0000C00E000BF00BF30
:100B7000FF2801D8904601E002F104084646FF280C
:100B800002D84FEA830803E0A3F108084FEA880877
:100B90004746D6F800804FF00F0909FA07F928EA0E
:100BA00009080CFA07F900E07AE048EA0908C6F8F3
:100BB0000080D1F8048008F08058B8F1805F6FD1D0
:100BC00000BFDFF8E481D8F8188048F00108DFF8AA
:100BD000D891C9F81880C846D8F8188008F00108DC
:100BE000CDF8008000BF00BF4FEAB9384FEA930943
:100BF00058F829504FEA83784FEA18794FF00F08D8
:100C000008FA09F825EA0805DFF8A081424502D173
:100C10004FF0000824E0DFF89881424502D14FF000
:100C200001081DE0DFF88C81424502D14FF0020837
:100C300016E0DFF88481424502D14FF003080FE04F
:100C4000DFF87881424502D14FF0040808E0DFF870
:100C50007081424502D14FF0050801E04FF00608CF
:100C60004FEA83794FEA197908FA09F848EA050545
:100C7000DFF850814FEA930948F82950D1F80480F1
:100C800008F48038B8F5803F0BD1DFF83C81D8F804
:100C9000008048EA0008DFF83091C9F800800AE0D7
:100CA00075E0DFF82481D8F8008028EA0008DFF832
:100CB0001891C9F80080D1F8048008F40038B8F51C
:100CC000003F0ED1DFF8008108F10408D8F8008059
:100CD00048EA0008DFF8F09009F10409C9F800803B
:100CE0000DE0DFF8E48008F10408D8F8008028EA75
:100CF0000008DFF8D49009F10409C9F80080D1F8A0
:100D0000048008F48018B8F5801F0ED1DFF8B88091
:100D100008F10808D8F8008048EA0008DFF8A89031
:100D200009F10809C9F800800DE0DFF89C8008F19E
:100D30000808D8F8008028EA0008DFF88C9009F14C
:100D40000809C9F80080D1F8048008F40018B8F543
:100D5000001F0ED1DFF8708008F10C08D8F8008071
:100D600048EA0008DFF8609009F10C09C9F8008032
:100D70000DE0DFF8548008F10C08D8F8008028EA6C
:100D80000008DFF8449009F10C09C9F800805B1CE9
:100D9000D1F8008028FA03F8B8F1000F7FF47CAE98
:100DA000BDE8F88700001110001002400008014063
:100DB000000C0140001001400014014000180140E7
:100DC000001C014008000140000401400AB101611B
:100DD00001E00B04036170470148006870470000A0
:100DE00004000020034800680349097808440149C9
:100DF00008607047040000200C00002010B508486F
:100E0000006840F0100006490860052000F080F8F6
:100E10000F2000F007F800F02BF8002010BD0000B4
:100E20000020024070B504460E4800784FF47A71F5
:100E3000B1FBF0F00C490968B1FBF0F5284600F071
:100E4000F7FB08B1012070BD102C07D2002221460B
:100E5000501E00F01EF80548046001E00120F2E792
:100E60000020F0E70C000020000000200800002017
:100E7000704701460846002809DB00F01F030122E5
:100E80009A4043099B0003F1E023C3F8002100BF0F
:100E900070472DE9F05F80460D461646002701F0A9
:100EA0002BF9074639462A46334601F00700C0F1C0
:100EB000070ABAF1040F02D94FF0040A01E0C0F1A9
:100EC000070AD14600F1040ABAF1070F02D24FF027
:100ED000000A01E0A0F1030AD4464FF0010A0AFA21
:100EE00009FAAAF1010A0AEA020A0AFA0CFA4FF010
:100EF000010B0BFA0CFBABF1010B0BEA030B4AEAFB
:100F00000B042146404601F0FFF8BDE8F09F0000C9
:100F100000BF00F00702064B19684FF6FF031940A7
:100F2000044B0B4343EA0221014B196000BF704799
:100F30000CED00E00000FA0570B504460D460CB952
:100F4000012070BD5A48006800F00700A8420ED288
:100F50005748006820F007002843554908600846B4
:100F6000006800F00700A84201D00120E9E72078DE
:100F700000F0020002281DD1207800F004000428AF
:100F800005D14C48406840F4E0604A494860207808
:100F900000F00800082805D14648406840F4605039
:100FA000444948604348406820F0F000A168084385
:100FB00040494860207800F0010078B3606801285B
:100FC00006D13C48006800F4003090B90120B8E731
:100FD0006068022806D13748006800F0007040B908
:100FE0000120AEE73348006800F0020008B9012094
:100FF000A7E73048406820F00300616808432D49A6
:101000004860FFF7E9FE064609E0FFF7E5FE801BB2
:1010100041F28831884202D9032092E707E025484F
:10102000406800F00C006168B0EB810FEDD1204802
:10103000006800F00700A8420ED91D48006820F0A3
:10104000070028431A4908600846006800F00700B6
:10105000A84201D0012074E7207800F004000428A1
:1010600007D11448406820F4E060E1680843114962
:101070004860207800F00800082808D10D48406832
:1010800020F46050216940EAC1000A49486000F03C
:101090003FF808494968C1F30311074A515CC84049
:1010A0000649086006480068FFF7BCFE002048E7D4
:1010B0000020024000100240704D00080000002097
:1010C0000800002001480068704700000000002070
:1010D00000B5FFF7F7FF04494968C1F30221034A4D
:1010E000515CC84000BD000000100240804D000867
:1010F00000B5FFF7E7FF04494968C1F3C221034A7D
:10110000515CC84000BD000000100240804D000846
:10111000F0B585B00FF26C0C9CE8E01001A8A0E8D7
:10112000E0101CA52D68009500210022002300245A
:101130000020194D696801F00C05F5B1042D02D0AD
:10114000082D19D101E0154819E001ADC1F383461E
:10115000AC5D01F4803555B10F4D6D68C5F3404568
:101160001DF805200D4D6543B5FBF2F302E00C4D73
:1011700004FB05F3184602E000BF084800BF00BFAB
:1011800005B0F0BD02030405060708090A0B0C0DA3
:101190000E0F1010010200000010024000127A0031
:1011A00000093D00F8B504460CB90120F8BD2078CF
:1011B00000F00100002878D0F848406800F00C00EA
:1011C00004280CD0F548406800F00C00082811D124
:1011D000F248406800F48030B0F5803F0AD1EF4813
:1011E000006800F4003000285FD0606800285CD1FF
:1011F0000120DBE700BF6068B0F5803F06D1E7481B
:10120000006840F48030E549086028E0606858B91B
:10121000E248006820F48030E04908600846006831
:1012200020F4802008601AE06068B0F5A02F0BD190
:10123000DA48006840F48020D84908600846006811
:1012400040F4803008600AE0D448006820F4803020
:10125000D24908600846006820F48020086000BF7A
:10126000606888B1FFF7B8FD054606E0FFF7B4FDFA
:10127000401B642801D9032098E7C848006800F49F
:1012800000300028F2D010E0FFF7A6FD054606E08A
:10129000FFF7A2FD401B642801D9032086E7BF4861
:1012A000006800F400300028F2D1207800F002003D
:1012B000022857D1B948406800F00C0050B1B74837
:1012C000406800F00C00082818D1B448406800F4C9
:1012D000803098B9B148006800F0020020B1206960
:1012E000012801D0012061E7AC48006820F0F80037
:1012F000616940EAC100A949086033E02069E8B1AA
:101300000120A7490860FFF767FD054606E0FFF7E3
:1013100063FD401B022801D9032047E79F4800686E
:1013200000F002000028F2D09C48006820F0F8008D
:10133000616940EAC1009949086013E000209849BA
:101340000860FFF749FD054606E0FFF745FD401B35
:10135000022801D9032029E79048006800F0020024
:101360000028F2D1207800F0080008282DD1A069CB
:10137000B8B101208B490860FFF72EFD054606E055
:10138000FFF72AFD401B022801D903200EE78348FE
:10139000406A00F002000028F2D0012000F06CFC4E
:1013A00013E000207F490860FFF716FD054606E0C0
:1013B000FFF712FD401B022801D90320F6E677480B
:1013C000406A00F002000028F2D1207800F004000A
:1013D000042873D100277148C06900F0805070B9AB
:1013E00000BF6E48C06940F080506C49C861084633
:1013F000C06900F08050009000BF00BF01276A481C
:10140000006800F48070B0B96748006840F48070EC
:1014100065490860FFF7E0FC054606E0FFF7DCFCE5
:10142000401B642801D90320C0E65F48006800F42F
:1014300080700028F2D000BFE068012806D157482C
:10144000006A40F001005549086227E0E06858B999
:101450005248006A20F00100504908620846006ABC
:1014600020F00400086219E0E06805280BD14B4821
:10147000006A40F00400494908620846006A40F0EA
:10148000010008620AE04548006A20F00100434973
:1014900008620846006A20F00400086200BFE068A5
:1014A000A0B1FFF799FC054609E0FFF795FC401B4A
:1014B00041F28831884202D9032077E622E037489A
:1014C000006A00F002000028EFD012E0FFF784FC71
:1014D000054608E0FFF780FC401B41F28831884256
:1014E00001D9032062E62D48006A00F002000028BE
:1014F000F0D1012F05D12948C06920F0805027493B
:10150000C86100BFE069C8B32448406800F00C001F
:10151000082860D0E069022848D1002020490866E8
:10152000FFF75AFC054606E0FFF756FC401B022871
:1015300001D903203AE61948006800F0007000283D
:10154000F2D1206AB0F5803F07D11448406820F4FA
:101550000030A168084311494860D4E908010843F4
:101560000E49496821F4741108430C494860012070
:101570000B490866FFF730FC054607E03DE0FFF742
:101580002BFC401B022801D903200FE6034800680A
:1015900000F000700028F2D02FE0000000100240A0
:1015A0000000424280044242007000400020144982
:1015B0000866FFF711FC054606E0FFF70DFC401B2F
:1015C000022801D90320F1E50E48006800F0007000
:1015D0000028F2D111E0E069012800D1E6E50948D0
:1015E000466806F48031206A814204D106F4701105
:1015F000606A814201D00120D8E50020D6E50000D4
:101600000000424200100240042808D14FF0E021BF
:10161000096941F004014FF0E022116107E04FF049
:10162000E021096921F004014FF0E02211617047C7
:1016300070B504462546681EB0F1807F01D30120B5
:101640000FE0681E4FF0E02148610F214FF0FF309E
:1016500000F05AFD00204FF0E0218861072008616A
:10166000002070BD704701460022002391F8392008
:1016700091F83A3042EA0300704700002DE9F04744
:101680000446206805682068C668206847694FF0EE
:101690000008C14605F00F08B8F1000F0AD105F0A7
:1016A000200038B106F0200020B1204600F0AAFB4F
:1016B000BDE8F087B8F1000F6DD007F0010018B950
:1016C00006F49070002866D005F0010030B106F4F1
:1016D000807018B1E06B40F00100E06305F0040099
:1016E00030B107F0010018B1E06B40F00200E06398
:1016F00005F0020030B107F0010018B1E06B40F0D6
:101700000400E06305F0080030B107F0010018B1F3
:10171000E06B40F00800E063E06B68B305F0200088
:1017200028B106F0200010B1204600F06BFB2068C5
:101730004069C0F38019E06B00F0080010B9B9F1FE
:10174000000F22D0204600F03DFB2068406900F0E9
:101750004000B0B12068406920F040002168486135
:10176000606B50B11748616B4863606BFFF7A6F878
:1017700010B1606B416B88470CE02046FFF772FFA9
:1017800008E02046FFF76EFF04E02046FFF76AFFFF
:101790000020E0638CE705F0800030B106F08000A7
:1017A00018B1204600F052FC82E705F0400030B14D
:1017B00006F0400018B1204600F014FB78E700BFA7
:1017C00076E70000B11D000810B504460CB90120F1
:1017D00010BDA06900B100E000BF94F8390028B93D
:1017E000002084F83800204600F028F8242084F8EF
:1017F00039002068C06820F400502168C860204685
:1018000000F054FB2068006920F4904021680861D2
:101810002068406920F02A00216848612068C0687B
:1018200040F400502168C8600020E063202084F864
:10183000390084F83A000020CAE7000010B586B0ED
:10184000044625492068884244D100BF2348806966
:1018500040F00400214988610846806900F00400D6
:10186000019000BF00BF00BF0846806940F480407F
:1018700088610846806900F48040019000BF00BF85
:1018800000BF0846806940F0010088610846806911
:1018900000F00100019000BF00BF48150290022037
:1018A0000390012004900320059002A90C48FFF743
:1018B000EDF84FF4806002900020039002A90848E0
:1018C000FFF7E4F82520FFF7D4FA0322114625207C
:1018D000FFF7DFFA06B010BD0038014000100240EB
:1018E0000008014010B5034693F83A0020282FD194
:1018F00001B10AB9012010BD00BF93F838000128DA
:1019000001D10220F7E7012083F8380000BF996277
:101910009A85DA850020D863222083F83A0000BF38
:10192000002083F8380000BF1868C06840F4807059
:101930001C68E0601868406940F001001C68606144
:101940001868C06840F020001C68E0600020D2E702
:101950000220D0E71D4A0168914236D11C4909880E
:1019600001F4004189BB1A49098801F4804171B131
:10197000184909780A2903D00021154A118024E06A
:101980001349098841F40041114A11801DE01149B1
:1019900009780D2906D10E49098841F480410C4A85
:1019A000118012E00B490978094A1288C2F30D022E
:1019B000094B995406490988491C054A118011466A
:1019C0000988C72901DD00211180704700380140D6
:1019D000180000201A000020D4020020704700BF29
:1019E000FEE7000010B500200A49086000F06EF91B
:1019F00000200949C1F8B001022002F077F8012067
:101A000004490860022002F071F800200249C1F880
:101A1000B40110BDB48122420080224200B585B0DD
:101A20000020019002900390049000BF0D4880694F
:101A300040F020000B4988610846806900F02000D2
:101A4000009000BF00BF4FF4405001901120029061
:101A5000002003900320049001A90348FFF716F823
:101A600005B000BD001002400014014010B5002078
:101A70000A49086000F02AF901200949C1F8B001BB
:101A8000022002F033F8012004490860022002F02D
:101A90002DF800200249C1F8B40110BDB4812242E2
:101AA0000080224270B50546002400F0F9F80026B7
:101AB00016E000200F490860022002F017F801200C
:101AC0000D49C1F8B4016006040E0A488438006864
:101AD00008B1601CC4B2022002F008F8701CC6B243
:101AE000082EE6DB15B9FFF7C1FF01E0FFF77AFF2B
:101AF000204670BDB48122420080224270B5044667
:101B000000F0E4F8002014490860012001F0EEFF25
:101B100000251EE0E00920B101200F49091F0860DF
:101B200003E000200C49091F08606006040E022033
:101B300001F0DCFF012008490860022001F0D6FF17
:101B400000200649C1F8B401022001F0CFFF681C53
:101B5000C5B2082DDEDB70BDB48122420080224276
:101B600010B500F0B3F801200A4908600A49C1F82D
:101B7000B401022001F0BAFF0020064908600220EB
:101B800001F0B4FF00200449C1F8B401022001F0C3
:101B9000ADFF10BDB08122420080224210B500F09E
:101BA00095F80020084908600849C1F8B0010220F2
:101BB00001F09CFF0120044908600449C1F8B0010C
:101BC000022001F093FF10BDB48122420080224226
:101BD00010B5002400F064F801201049086001F0FD
:101BE00085FF01200E49C1F8B40101F07FFF0AE032
:101BF000601CC4B2FA2C03DDFFF7D0FF012010BD3A
:101C0000012001F073FF0548803800680028EFD1FB
:101C10000249091D086000BFF1E70000B0812242BF
:101C20000080224200BFFEE77047704700B585B0D4
:101C300000BF0F48806940F480700D4988610846F4
:101C4000806900F48070009000BF00BF40200190C8
:101C50000120029003900320049001A90548FEF79B
:101C600015FF002240210348FFF7B0F805B000BD82
:101C7000001002400020014008B508490968C90861
:101C80004FF47A72B1FBF2F14143009100BF00BF03
:101C900000994A1E00920029F9D108BD00000020D9
:101CA0001FB5002000900190029003904FF48050E7
:101CB00000900020019002900320039069460248A2
:101CC000FEF7E4FE1FBD0000001401401FB5002018
:101CD00000900190029003904FF4805000901120EA
:101CE0000190002002900320039069460148FEF70E
:101CF000CDFE1FBD00140140704730B58FB00546C2
:101D00000024012005900004069000200790022086
:101D10000C90C1030D910E9505A8FFF743FA0446F8
:101D20000CB100BFFEE70F200090022001900020C0
:101D300002904FF4806003900020049002216846D6
:101D4000FFF7FAF804460CB100BFFEE70FB030BD54
:101D500010B5FFF747F810BD1148006840F00100CA
:101D60000F490860084640680E4908400C49486021
:101D7000084600680C4908400949086008460068A0
:101D800020F4802008600846406820F4FE00486087
:101D90004FF41F008860C8030449086070470000C2
:101DA000001002400000FFF8FFFFF6FE08ED00E023
:101DB00070B505466C6A0020E085E0842046FFF798
:101DC00051FC70BD0168C96821F490710268D1604E
:101DD0000168496921F0010102685161202180F800
:101DE0003A10704710B504462068C06820F04000E3
:101DF0002168C860202084F839002046FFF7EEFDF6
:101E0000002010BD70B5044694F83A0022284AD14B
:101E1000A068B0F5805F13D1A56A206940B9206839
:101E20004068C0F308002880A06A801CA06219E006
:101E300020684068C0B22880A06A401CA06211E0FF
:101E4000206938B920684068C1B2A26A501CA062FB
:101E5000117007E02068406800F07F01A26A501C02
:101E6000A0621170E08D401E80B2E085C8B9206884
:101E7000C06820F020002168C8602068C06820F495
:101E800080702168C8602068406920F001002168E6
:101E90004861202084F83A002046FFF75BFD0020CF
:101EA00070BD0020FCE70220FAE7000070B5044690
:101EB0002168096921F44051E268114322681161E7
:101EC0002269A1681143626941EA02052168C96873
:101ED00041F20C62914329432268D160216849692B
:101EE00021F44071A269114322685161564A216868
:101EF000914254D1FFF7FCF800EBC00101EB001157
:101F000062689200B1FBF2F100EBC00202EB00123A
:101F100063689B00B2FBF3F26423B2FBF3F202EBC3
:101F2000C20303EB0212A1EB8201322202EB011188
:101F30006422B1FBF2F101F0F00100EBC00202EB10
:101F4000001263689B00B2FBF3F26423B2FBF3F26E
:101F500001EB021200EBC00101EB001163689B0072
:101F6000B1FBF3F100EBC00303EB00136668B600AE
:101F7000B3FBF6F36426B3FBF6F303EBC30606EB01
:101F80000313A1EB8301322303EB01116423B1FBA3
:101F9000F3F101F00F0111442268916053E0FFF763
:101FA00097F800EBC00101EB001162689200B1FBF1
:101FB000F2F100EBC00202EB001263689B00B2FB7F
:101FC000F3F26423B2FBF3F202EBC20303EB02125F
:101FD000A1EB8201322202EB01116422B1FBF2F18A
:101FE00001F0F00100EBC00202EB001263689B00FD
:101FF000B2FBF3F26423B2FBF3F201EB021200EB4B
:10200000C00101EB001163689B00B1FBF3F100EB31
:10201000C00303EB00136668B600B3FBF6F3642657
:10202000B3FBF6F303EBC30606EB0313A1EB83014B
:10203000322303EB01116423B1FBF3F101F00F0133
:1020400011442268916070BD00380140014691F84A
:10205000390021282CD18868B0F5805F0FD10A6A39
:102060001088C0F308000B685860086918B9086A3E
:10207000801C086209E0086A401C086205E00B6ADF
:10208000581C086218780B685860C88C401E80B2D3
:10209000C88458B90868C06820F080000B68D86010
:1020A0000868C06840F040000B68D86000207047A6
:1020B0000220FCE710B500240C48FFF7DFFA00BF50
:1020C00001E0641C00BF0948FFF7CDFA2028F8D1D1
:1020D00000BF002401E0641C00BF01220449034842
:1020E000FFF700FC0028F6D100BF10BD9C030020C4
:1020F0001A00002000BFFEE702480068C0F302207B
:10210000704700000CED00E010B5002804DB0A0762
:10211000130E054A135406E00A07140E034A00F092
:102120000F031B1FD45410BD00E400E018ED00E0C5
:1021300030380A2801D2012070470020704700BFC4
:102140007047000008B5002000901A491AA0FEF759
:1021500089F8022001F035FB1E49496D087800F02E
:102160003BF810226FF018013A2001F0C7FEC022A0
:10217000D143772001F0C2FE1648406D90F8370039
:1021800048B11448406D90F837000090012269462C
:10219000212001F0CFFE0F48406D90F83B0040B188
:1021A0000C48406D90F83B206FF00F011C2001F0AF
:1021B000A5FE08BDD24D00085B495D5B6861707487
:1021C00069635F6E765D25733A20656E7465720D86
:1021D0000A0000003C01002010B504462CB1042286
:1021E000D143082001F08AFE04E00022511F08209C
:1021F00001F084FE10BD000070B5002500BF264828
:1022000000692549496D8968401A24494843224993
:10221000096901EB4101C90090FBF1F42246204914
:1022200020A0FEF71FF8002C12DB0A2094FBF0F12F
:1022300000FB1140052805DB0A2094FBF0F000F1BB
:10224000210418E00A2094FBF0F000F1200412E0D1
:102250000A2094FBF0F100FB114010F1050F05DCA2
:102260000A2094FBF0F000F11F0404E00A2094FB24
:10227000F0F000F120041F2C03DDA4F12000C5B212
:1022800002E004F12000C5B20348C572C27A0449D5
:102290000DA0FDF7E7FF70BD3C010020A086010006
:1022A0008A4E00085B495D5B6861707469635F6EAC
:1022B000765D25733A2066305F63616C695F737485
:1022C00065703D25640D0A005B495D5B6861707453
:1022D00069635F6E765D25733A2066305F63616C7B
:1022E000695F646174613D3078253032580D0A00B1
:1022F00038B500200090002401226946642001F0D6
:10230000E1FD04460CB1204638BD9DF8000000F008
:102310008000802805D1044904A0FDF7A3FF002018
:10232000F2E70120F0E70000884D00085B495D5BA3
:102330006861707469635F6E765D25733A206368C7
:1023400065636B20717561696C696679207375636B
:10235000636573732E0D0A0008B5002000901249C2
:1023600012A0FDF77FFF032000F09AFE1648406D93
:10237000407B40F080026FF0FF011D2001F0BEFDA8
:102380001148406D807B0090012269461E2001F0BB
:10239000D1FDFF20009001226946202001F0CAFDF6
:1023A000012000F04FFE08BD754F00085B495D5BE2
:1023B0006861707469635F6E765D25733A20656E3F
:1023C0007465720D0A0000003C0100202DE9F843FD
:1023D00000260027002000900024C8258046604980
:1023E00060A0FDF73FFF6648406D80686449086162
:1023F00000F02CFF032000F053FE0822D1431820E8
:1024000001F07CFD8022D1431D2001F077FD0122E7
:102410006946082001F056FD9DF8000000F0040711
:102420000422611F082001F069FD5548406D427B80
:102430006FF07F011D2001F061FD5148406D807BF0
:102440008DF80000012269461E2001F073FD4C4802
:10245000406D90F834008DF800004948406D90F8C8
:1024600035008DF80100022269461F2001F062FD4F
:102470004348406D90F8380050B14148406D90F8A5
:1024800038008DF8000001226946222001F052FD3B
:102490003B48406D806810B90120BDE8F88338489A
:1024A000406D80683749B1FBF0F03549496D91F8CE
:1024B0003810401A3249496D91F83B10401AA0F18A
:1024C0000804002C00DA0024FF2C00DDFF24E0B219
:1024D0008DF800009DF8002021492BA0FDF7C2FED9
:1024E000012269461A2001F025FD012000F0AAFD15
:1024F000142001F03BFD1CE0012269463F2001F061
:10250000E1FC9DF8000000F00F0040B90025012615
:102510009DF80020124927A0FDF7A4FE06E06D1EDD
:102520009DF800200E4931A0FDF79CFE0A2001F025
:102530001DFD002DE0D11EB100F06AFFA84601E0AC
:102540004FF0010800226FF00801182001F0D6FCBE
:102550003A466FF00401082001F0D0FC40469CE7A9
:10256000764E00085B495D5B6861707469635F6EFD
:10257000765D25733A20656E7465720D0A00000061
:102580003C01002080A903005B495D5B68617074B9
:1025900069635F6E765D25733A20636F6E745F6466
:1025A00072765F77696474683D3078253032580DF3
:1025B0000A0000005B495D5B6861707469635F6E6F
:1025C000765D25733A20656E746572656420737458
:1025D000616E6462792120676C625F7374617465F7
:1025E0003D3078253032580D0A0000005B495D5BB4
:1025F0006861707469635F6E765D25733A207761F8
:10260000697474696E6720666F72207374616E649A
:1026100062792C676C625F73746174653D307825F4
:102620003032580D0A000000F8B5002400250026BD
:10263000002700200090032269462F2001F042FC71
:102640009DF8000004099DF801609DF8000000F06D
:102650000F059DF8027047EA052346EA0422024965
:102660000248FDF7FFFDF8BDA64E000834510008F2
:1026700008B500200090012269463F2001F022FCAD
:102680009DF800303F22034903A0FDF7EBFD9DF8C4
:10269000000008BD3C4E00085B495D5B68617074DA
:1026A00069635F6E765D25733A207265673A3078AC
:1026B000253032583D3078253032580D0A00000060
:1026C00038B500200090002401226946022001F064
:1026D000F9FB9DF800201B491BA0FDF7C3FD9DF8E9
:1026E000000000F0200000B101249DF8000000F07F
:1026F000040000B102249DF8000000F0020000B1C7
:1027000003249DF8000000F0010020B10D4918A03D
:10271000FDF7A8FD04249DF8000000F0080020B19A
:1027200008491DA0FDF79EFD05249DF8000000F05E
:10273000100020B1034924A0FDF794FD0624204693
:1027400038BD0000324F00085B495D5B6861707402
:1027500069635F6E765D25733A2072656720535911
:1027600053494E543D3078253032580D0A00000050
:102770005B495D5B6861707469635F6E765D25734C
:102780003A206368697020706C61796261636B20C4
:10279000646F6E650D0A00005B495D5B6861707473
:1027A00069635F6E765D25733A20727470206D6F79
:1027B0006465206669666F20616C6D6F7374206656
:1027C000756C6C210D0A00005B495D5B686170747B
:1027D00069635F6E765D25733A2072747020666956
:1027E000666F20616C6D6F737420656D7074790D08
:1027F0000A000000F8B50020009000270024002502
:10280000002600F023FD01226946492001F05AFB11
:102810009DF8000000F007072F48406D90F83C201D
:102820006FF00701492001F069FB2B49496D91F8D0
:102830003C0000F07FFE0646002E00DAF8BD0120C5
:1028400000F0D6FD00F002FD022001F08FFB002217
:102850006FF04001442001F051FB1022D143512080
:1028600001F04CFB0122D11E522001F047FB032056
:1028700001F07CFB01226946532001F023FB9DF807
:1028800000002043840001226946572001F01AFB12
:102890009DF8000000F00300044340F2A62104FB71
:1028A00001F064214843B102B0FBF1F505EB85006E
:1028B000400009494861002000F09AFD3A466FF057
:1028C0000701492001F01AFB03480449426904A0AA
:1028D000FDF7C8FC00BFB1E73C0100205A4F0008DB
:1028E0005B495D5B6861707469635F6E765D2573DB
:1028F0003A207265733D25640D0A000070B50446E8
:102900000D46AAB22146422001F0DCFA70BD10B596
:102910003121002000F0C8FD4121332000F0C4FD2A
:102920007721432000F0C0FD10BD000038B5002025
:102930000090002400F08AFC012000F059FD0222E2
:10294000511F522001F0DAFA022001F00FFB0122A0
:102950006946552001F0B6FA9DF800002043840036
:1029600001226946572001F0ADFA9DF80000C0F33E
:102970000110044341F2D4706043800A1549C861D4
:102980000846C06941F29411884208D908461149A5
:10299000C86108461049C26910A0FDF763FC0D48E4
:1029A000C06940F6B831884208D208460949C86172
:1029B00008460949C26914A0FDF754FC054823469E
:1029C0000549C2691BA0FDF74DFC002000F010FD79
:1029D00038BD00003C010020214F00085B495D5BD1
:1029E0006861707469635F6E765D25733A20766204
:1029F0006174206D6178206C696D6974203D2025BB
:102A0000646D560D0A0000005B495D5B686170747F
:102A100069635F6E765D25733A2076626174206D1E
:102A2000696E206C696D6974203D2025646D560DBA
:102A30000A0000005B495D5B6861707469635F6EEA
:102A4000765D25733A20766261743D25646D562C5F
:102A500020766261745F636F64653D307825303243
:102A6000580D0A0010B5044654B900226FF0080151
:102A7000442001F043FA084908A0FDF7F3FB0AE0FF
:102A8000032C08D10822D143442001F037FA02492F
:102A90000CA0FDF7E7FB10BDD44E00085B495D5B61
:102AA0006861707469635F6E765D25733A20736543
:102AB0006C6563742054524947312070696E0D0A69
:102AC000000000005B495D5B6861707469635F6E64
:102AD000765D25733A2073656C65637420494E49B1
:102AE000542070696E0D0A0010B5012000F0AAFA9A
:102AF00010BD00007CB50546002400200190009028
:102B000068488069022803D06648806903280AD192
:102B10006448807838B1002000F004F90320FFF702
:102B2000A1FF01207CBD25B1012D45D0022D78D11A
:102B30007CE05C488069022803D05A4880690328F9
:102B400002D10020FFF78EFF5648806C007980008C
:102B50005449896CC97840EA41005249896C8978A6
:102B60000843C4B26007020E6FF0E001392001F0A3
:102B7000C5F94C48806CC0794A49896C497940EA6A
:102B8000C110C0B20190012201A9332001F0D2F995
:102B90004448806C007A4349896C897940EAC110C5
:102BA000C0B2009001226946362001F0C3F93E49C7
:102BB0003EA0FDF757FB72E03A48C06C00798100F7
:102BC0003848C06CC07841EA40003649C96C897801
:102BD0000843C4B26006020E6FF00E01392001F006
:102BE0008DF93048C06CC1792E48C06C407941EAFB
:102BF000C010C0B20190012201A9342001F09AF95D
:102C00002848C06C017A2748C06C807941EAC0101E
:102C1000C0B2009001226946372001F08BF92249A9
:102C200000E03BE02BA0FDF71DFB38E01D48006DE8
:102C3000007981001B48006DC07841EA40001949C5
:102C4000096D89780843C4B26007020E6FF0E00195
:102C50003A2001F053F91348006DC1791148006D15
:102C6000407941EAC010C0B20190012201A935208B
:102C700001F060F90B48006D017A0A48006D807917
:102C800041EAC010C0B2009001226946382001F02C
:102C900051F9054919A0FDF7E5FA00E000BF00BFB2
:102CA00000203FE73C010020EE4E00085B495D5BE1
:102CB0006861707469635F6E765D25733A20747223
:102CC00069673120636F6E666967206F6B210D0A3B
:102CD000000000005B495D5B6861707469635F6E52
:102CE000765D25733A20747269673220636F6E6671
:102CF0006967206F6B210D0A000000005B495D5B76
:102D00006861707469635F6E765D25733A207472D2
:102D100069673320636F6E666967206F6B210D0AE8
:102D20000000000020B1012806D002280CD107E0E5
:102D30000749084A916408E0074A0649CA6404E062
:102D4000064A04490A6500E000BF00BF7047000062
:102D5000600000203C01002069000020720000207B
:102D600008B50020009001226946022001F0AAF86F
:102D70009DF80020084909A0FDF774FA10226FF0B1
:102D80003001492001F0BAF819226FF03F01032009
:102D900001F0B4F808BD0000BC4E00085B495D5B63
:102DA0006861707469635F6E765D25733A20726541
:102DB0006720535953494E543D3078253032580DD1
:102DC0000A00000008B50020009001226946022098
:102DD00001F078F89DF80020024903A0FDF742FABF
:102DE00008BD0000484F00085B495D5B6861707476
:102DF00069635F6E765D25733A20535953494E548B
:102E00003D3078253032580D0A00000008B500200A
:102E10000090012269463F2001F054F89DF800001F
:102E200000F00F00082801D1002008BD9DF8000027
:102E3000FBE7000008B5002000904E494EA0FDF7CA
:102E400011FA4022D143492001F058F85148406D11
:102E500090F83D008DF800004E48406D90F83E001F
:102E60008DF801004B48406D90F83F008DF802004E
:102E70004848406D90F840008DF8030004226946F0
:102E8000452001F057F84348406D90F836008DF822
:102E90000000012269461B2001F04CF83D48406DBE
:102EA00090F83C0040B13B48406D90F83C206FF0FA
:102EB0000701492001F022F83648406D007BA8B197
:102EC0003448406D90F83A0080B13248406D90F837
:102ED0003A003049496D097B40EA0110C0B28DF8D3
:102EE000000001226946242001F024F82948406DA1
:102EF0008068B0F5E16F01D2274800E027484FF421
:102F00007A7190FBF1F02349496D096B48434EF605
:102F10004861B0FBF1F01F49496D88731D48406D51
:102F2000837B1C48406D1349026B1DA0FDF79AF985
:102F30001848406D807B7F2803DD7F201549496D4F
:102F4000887314488069012804D0022803D003281C
:102F500005D101E000BF00BFFFF7F4F800E000BFBB
:102F600000BF022000F050FB3F21322000F0E6F9C4
:102F700008BD0000F84D00085B495D5B6861707436
:102F800069635F6E765D25733A20656E7465720DB8
:102F90000A0000003C010020009E1B0000611E0092
:102FA0005B495D5B6861707469635F6E765D257314
:102FB0003A206C72615F76726D733D25642C2063DC
:102FC0006F6E745F647276325F6C766C3D3078251C
:102FD0003032580D0A00000038B5002000904FF440
:102FE000FA64104910A0FDF73DF9012000F000FA45
:102FF0000122D11E522000F081FF0CE0012269461F
:10300000522000F05FFF9DF8000000F0010000B1C9
:1030100004B901E0641EF1E700BF002000F0E8F908
:1030200038BD00000F4E00085B495D5B686170743D
:1030300069635F6E765D25733A20656E7465720D07
:103040000A00000038B50446002000900C490DA08D
:10305000FDF708F954B101200090012269460920CA
:1030600000F068FF022000F081FF06E002200090DF
:1030700001226946092000F05DFFFFF7F9FA38BD2B
:10308000524E00085B495D5B6861707469635F6EF6
:10309000765D25733A20656E7465720D0A00000036
:1030A00010B50446062C5AD2DFE804F0030D1D2C9F
:1030B00039492C492CA0FDF7D5F8002034498871F6
:1030C00000F0C4F84CE0274932A0FDF7CBF801200E
:1030D0002F498871022000F097FA0022111F082062
:1030E00000F00CFF3CE01F4933A0FDF7BBF80220C5
:1030F0002749887100F088FA0022111F082000F08B
:10310000FDFE2DE0174936A0FDF7ACF8032020495D
:1031100088710222C11F082000F0F0FE20E0114952
:1031200038A0FDF79FF8042019498871012000F0AC
:103130006BFA0122511F082000F0E0FE10E009495F
:1031400039A0FDF78FF8052011498871022000F0A1
:103150005BFA0022111F082000F0D0FE00E000BF43
:1031600000BF10BDC04D00085B495D5B68617074B5
:1031700069635F6E765D25733A20656E74657220B3
:103180007374616E646279206D6F64650D0A00006E
:103190003C0100205B495D5B6861707469635F6E30
:1031A000765D25733A20656E7465722072616D20BC
:1031B0006D6F64650D0A00005B495D5B686170744A
:1031C00069635F6E765D25733A20656E7465722063
:1031D00072616D206C6F6F70206D6F64650D0A00F9
:1031E0005B495D5B6861707469635F6E765D2573D2
:1031F0003A20656E74657220636F6E74206D6F6423
:10320000650D0A005B495D5B6861707469635F6EA0
:10321000765D25733A20656E746572207274702035
:103220006D6F64650D0A00005B495D5B68617074D9
:1032300069635F6E765D25733A20656E74657220F2
:1032400074726967206D6F64650D0A0038B50125D9
:103250000020009028241B49887102200090012240
:103260006946092000F066FE1BE0012269463F2006
:1032700000F028FE9DF8000000F00F0038B900258E
:103280009DF80020104911A0FCF7ECFF0BE0641E34
:103290009DF800200C491BA0FCF7E4FF022000F081
:1032A00065FE002CE1D100BF55B14022D14344203E
:1032B00000F024FE00226FF04001442000F01EFECA
:1032C00038BD00003C0100209E4D00085B495D5B5D
:1032D0006861707469635F6E765D25733A20656E10
:1032E0007465726564207374616E6462792120670D
:1032F0006C625F73746174653D3078253032580DAF
:103300000A0000005B495D5B6861707469635F6E11
:10331000765D25733A207761697420666F72207339
:1033200074616E6462792C20676C625F737461747F
:10333000653D3078253032580D0A000013B582B053
:103340000C460020019000226FF080014C2000F01C
:10335000D5FD9CB10F4910A0FCF784FF04F07F005D
:1033600040F080000190012201A94E2000F0E2FD12
:10337000012202A94F2000F0DDFD09E0054911A05E
:10338000FCF770FF00226FF080014E2000F0B6FDC8
:103390001FBD0000E14D00085B495D5B6861707412
:1033A00069635F6E765D25733A20656E61626C6558
:1033B0002070726F74656374696F6E206D6F6465E1
:1033C0000D0A00005B495D5B6861707469635F6E44
:1033D000765D25733A2064697361626C6520707252
:1033E0006F74656374696F6E206D6F64650D0A009C
:1033F00010B504462CB10822D143432000F07EFDD5
:1034000005E000226FF00801432000F077FD10BDB9
:1034100058B500200090002600BF114911A0FCF70C
:1034200021FF02226946252000F04CFD9DF8000096
:10343000304306029DF8010006432EB91048406D46
:1034400080680F49086158BD0E48B0FBF6F40C487F
:103450000461034902690CA0FCF704FF00BFF2E716
:10346000624E00085B495D5B6861707469635F6E02
:10347000765D25733A20656E7465720D0A00000052
:103480003C01002000983A005B495D5B6861707404
:1034900069635F6E765D25733A206C72615F66309A
:1034A0003D25640D0A0000002DE9F041C0B005463D
:1034B0000E460024A04600274FF480716846FDF7B1
:1034C00031F8701B471CBAB26946284600F0FAFC76
:1034D0008046B8F1010F02D140B0BDE8F081002470
:1034E00006E01DF80420291903A0FCF7BBFE641CAC
:1034F000BC42F6DB00BFEFE77265673A30782530F3
:1035000032583D3078253032580D0A0008B5002079
:10351000009001226946104600F0D4FC9DF800009E
:1035200000F0080000909DF80000C01000909DF889
:10353000000008BD01460020082915D2DFE801F08F
:103540000406080A0C0E1012012010E002200EE002
:1035500004200CE005200AE0082008E00A2006E02C
:10356000142004E0282002E04FF0FF3000BF00BF2D
:103570007047000038B50024002000900848446CD3
:10358000C4F307226FF00F012D2000F0B7FCE0B26A
:103590000090012269462E2000F0CCFC38BD0000CE
:1035A0003C010020F8B500260025002000900E48C0
:1035B000446CF02101EA5416A4EB9400C0F30325F7
:1035C00046EA05008DF80000C4F347008DF80100BD
:1035D000A4EB9400C0B28DF80200032269462F20AC
:1035E00000F0A8FCF8BD00003C01002001B59DF8EA
:1035F00000000449086201226946072000F09AFC95
:1036000008BD00003C01002010B5044624B1012C87
:1036100008D0022C1AD10FE00122511F442000F0E3
:103620006DFC14E00022111F442000F067FC0949E2
:1036300009A0FCF717FE0AE00222911F442000F0C7
:103640005DFC04490FA0FCF70DFE00E000BF00BFC9
:1036500010BD0000B04D00085B495D5B686170748F
:1036600069635F6E765D25733A2057415644415435
:103670005F4D4F44453A2041575F50574D5F3234BC
:103680004B0D0A005B495D5B6861707469635F6E36
:10369000765D25733A205741564441545F4D4F445F
:1036A000453A2041575F50574D5F31324B0D0A006C
:1036B00038B5002000900748446C200A8DF80000BF
:1036C000E0B28DF8010002226946402000F032FC91
:1036D00038BD00003C01002070B504460D46AAB27A
:1036E0002146422000F026FC70BD10B5044621465C
:1036F000002000F05CF80021012000F058F80F21B4
:10370000002000F02CF810BD10B5044634B10022A2
:103710006FF01001032000F0F1FB04E01022D14310
:10372000032000F0EBFB10BD70B504460D46AAB2B5
:103730002146322000F0FEFB70BD10B50446204645
:10374000FFF7F0FA2046FFF7D5F910BD10B5044693
:1037500022466FF03F015A2000F0D0FB10BD2DE94A
:10376000F04104460D460026204604EBD071491076
:10377000A4EB410161B12E46274604EBD7714910F5
:103780001231C8B232466FF00F0100F0B7FB0CE007
:103790002807060E274604EBD77149101231C8B22C
:1037A00032466FF0F00100F0A9FBBDE8F08113B5DF
:1037B000044604F10A01C8B2012201A900F0BAFBD3
:1037C0001CBD10B5044624B1012C0ED0022C23D10F
:1037D00017E000226FF020012D2000F08FFB102257
:1037E000D1432D2000F08AFB17E02022D1432D2069
:1037F00000F084FB00226FF010012D2000F07EFB12
:103800000BE01022D1432D2000F078FB2022D14381
:103810002D2000F073FB00E000BF00BF10BD0000D2
:1038200010B50F490FA0FCF71DFD15488069012850
:1038300004D002280CD003280FD10AE00020FFF7A3
:103840007CFF0120FFF779FF0220FFF776FF05E0FC
:1038500000BF0020FFF771FF00E000BF00BF10BDF8
:103860000F4F00085B495D5B6861707469635F6E50
:10387000765D25733A20656E7465720D0A0000004E
:103880003C01002038B50446002000900C490DA0F2
:10389000FCF7E8FC012C0CD10C20009001226946B9
:1038A0003C2000F047FB8022D143432000F026FB60
:1038B00005E000226FF08001432000F01FFB38BDBF
:1038C000234E00085B495D5B6861707469635F6EDD
:1038D000765D25733A20656E7465720D0A000000EE
:1038E00010B5012001F010F9024909688868804785
:1038F00010BD00003801002070B590B000240025F4
:1039000000263C2101A8FCF70DFE14490968086E49
:1039100080471BE01248806D001B3C2803DA1048EA
:10392000806D051B00E03C250C4800682946C26DEF
:1039300001A890470A48C06D011901AA284600F065
:1039400013FE0646012E00D104E02C440448806D8D
:10395000A042DFDC00BF304610B070BD380100204F
:103960003C0100200D488069012804D0022803D0C2
:10397000032810D101E000BF00BF0948074948658E
:103980000120C870087107490448C16506480068ED
:103990000249886500E000BF00BF70473C0100207D
:1039A0001C0000209C010020D401002010B5002440
:1039B000124909688869804710480068816A0120B7
:1039C00088470E490968886E80470C490968086D68
:1039D00080470A490968486D804701F043F9FFF7BD
:1039E0008BFF04461CB9064906A0FCF73BFC0348C4
:1039F0000068816A00208847204610BD38010020F9
:103A00007A5000085B495D5B6861707469635F6E42
:103A1000765D25733A2072616D2064617461206364
:103A20006865636B2073756D20706173730D0A0098
:103A30001948006808B901207047184816490968F4
:103A4000C1F8AC00164814490968C1F88C00154843
:103A500011490968C1F8940013480F490968C1F871
:103A6000B00012480C490968C1F8B40010480A496E
:103A70000968C1F8B8000F4807490968C1F8A000F3
:103A80000D4805490968C1F89C000C4802490968BD
:103A9000C1F890000020CFE738010020353B000836
:103AA0009D3B0008E13800084948000855410008DE
:103AB000B149000805490008ED3C000885460008AA
:103AC00010B504460420FDF79FFD0148046010BDB9
:103AD0001000002030B50446002504E04FF47A7051
:103AE00000F004F86D1CA542F8D330BD70B5034654
:103AF00000224FF0E02675690D4E36685E43B4082B
:103B00004FF0E026B16910E04FF0E026B06988423E
:103B10000BD0884202D20E1A324402E02E1A0E4412
:103B200032440146A24200D300E0EDE700BF70BD81
:103B30001000002010B500240F4910A0FCF792FBE4
:103B4000002000F0E1FF144909688868804748B9FF
:103B500000F0C6FA04460CB1012010BD0E490968F8
:103B6000C86B8047012000F0CFFF0B4909688869C6
:103B700080472046F1E70000E54F00085B495D5BA8
:103B80006861707469635F6E765D25733A20656E57
:103B90007465720D0A0000003801002010B5002085
:103BA00000F0B2FF0349096888688047012000F0EF
:103BB000ABFF10BD3801002000BF054A126802F0BB
:103BC0004002002AF9D0C2B2014B1B1D1A60704797
:103BD0000038014000200B498969012904D00229DD
:103BE00003D0032906D101E000BF00BF0649074A00
:103BF000116001E0012000BF00BF0449096801B95C
:103C0000012070473C0100207C000020380100208A
:103C10002DE9F0410026002700240125032419E0A6
:103C20002648C16D601C095C2448C06D005D41EAF6
:103C300000262248C16DE01C095C2048C26DA01C12
:103C4000105C41EA0027B81B012801D16D1C00E07F
:103C500004E0241D1948806DA042E1DC00BFAC00E7
:103C600027E01648C16D601E095C1448C06D005DF8
:103C700040EA01261148C06D81781048C06D407837
:103C800041EA0020A0EB8500401E0C49486408462C
:103C9000406C301A401C896D884208D10748084999
:103CA000426C08A0FCF7DEFA0020BDE8F0816D1E32
:103CB000241F042CD5DA0120F7E700003C01002086
:103CC000894F00085B495D5B6861707469635F6E72
:103CD000765D25733A20626173655F61646472206A
:103CE0003D203078253034780D0A000010B50024CE
:103CF0000F48407800B910BD0D48C06D81780C4860
:103D0000C06D407841EA00240948B0F84400201A08
:103D1000401EC0F38700064981F83800084690F835
:103D20003820044904A0FCF79DFA00BFE3E7000037
:103D30003C0100203A5000085B495D5B686170748B
:103D400069635F6E765D25733A2072616D206E75D2
:103D50006D203D2025640D0A0000000010B50D48BF
:103D6000406D80680B4988620B480068416A0020FA
:103D7000884709490968C86A804707490968086A85
:103D8000804705480068416B01208847FFF7D2FE55
:103D900010BD00003C010020380100203EB5002489
:103DA0002AA0006802900020019029A22A492BA095
:103DB000FCF758FA032202A90A2000F0BBF89DF88C
:103DC0000A0000909DF809309DF8082022492FA094
:103DD000FCF748FA032201A90A2000F073F89DF8C5
:103DE000060000909DF805309DF804201A4927A090
:103DF000FCF738FA00F01AF900F042FA04460CB168
:103E000020463EBD00F044FEFFF7ACFDFFF7E2FEAA
:103E100004460CB12046F4E7284909680868804741
:103E200004460CB12046ECE7FFF798FF00F0C4FB16
:103E300004460CB12046E4E7FFF7FAFD00224021DA
:103E40001F48FCF7C3FF2046DBE700005152530038
:103E500076302E342E300000945000085B495D5BB4
:103E60006861707469635F6E765D25733A2068617E
:103E7000707469635F6E762064726976657220760D
:103E8000657273696F6E2025730D0A005B495D5B77
:103E90006861707469635F6E765D25733A20726540
:103EA000675F64617461312064617461203A202528
:103EB0006420202564202025640D0A00380100209C
:103EC000002001402DE9F04104460D46164600272A
:103ED0000EE0F2B2084949794906080E2B46214600
:103EE000FCF785FC10B10020BDE8F081781CC7B25A
:103EF000052FEEDB0120F7E73C010020F8B507466F
:103F00000C46154600200090E6B20122694638466C
:103F1000FFF7D8FF9DF800003040009025EA06002A
:103F20009DF800100843009001226946384600F0D1
:103F300001F8F8BD2DE9F04104460D46164600276C
:103F40000EE0F2B2084949794906080E2B4621468F
:103F5000FCF78EFC10B10020BDE8F081781CC7B2E0
:103F6000052FEEDB0120F7E73C01002010B50446E9
:103F70002046FCF777FD10BD70B505460C462CB900
:103F8000002229460548FCF721FF06E0012C04D158
:103F9000012229460148FCF719FF70BD00200140AD
:103FA0002DE9F04104460D460027012621E00122BB
:103FB00021465720FFF786FF06462078232806D1A2
:103FC000012221466920FFF77DFF064605E0012218
:103FD00021460020FFF776FF0646012E06D125B9BF
:103FE000074908A0FCF73EF901E000E003E0781C77
:103FF000C7B2052FDBDB00BF3046BDE8F081000013
:10400000A85000085B495D5B6861707469635F6E0E
:10401000765D25733A2072656164696E6720636816
:1040200069702069640D0A007047704710B500215F
:104030004020FFF7A1FF0220FFF798FF0121402059
:10404000FFF79AFF0820FFF791FF10BD70B500241D
:10405000012513490968D1F88000804704461148BA
:10406000C06A11490968884202D004F00F00A8B95B
:104070000C48C06A0C490968884205D109480B49B7
:10408000C26A0BA0FCF7EEF800200649C86208706F
:1040900003480068016F002088470025284670BD4E
:1040A000380100203C010020D0020020FC4F000815
:1040B0005B495D5B6861707469635F6E765D2573F3
:1040C0003A207274702075706461746520636F6D3E
:1040D000706C657465212C636E743D25640D0A0057
:1040E0007CB5002400251848406D80681649496D4C
:1040F0004968C1F1640148436421B0FBF1F41248FE
:10410000406D80681049496D4968643148436421B5
:10411000B0FBF1F50C480069CDE900500A48406D4C
:1041200023460A4982680A48FCF79CF80648006959
:10413000A04201D201207CBD03480069A84201D9F8
:104140000120F8E70020F6E73C010020CD4F0008F1
:104150008051000870B504460D461C48407808B9E7
:10416000012070BD05B10CB90120FAE723462A46AB
:10417000174918A0FCF776F81448406B20B1FFF7F8
:1041800054FF0020114948631F4909688869804726
:104190000E4844620563012000F0B6FC012000F0E7
:1041A000D3FA0A4A92F82400174A1268516E8847D7
:1041B00015480068416A0220884713490968486920
:1041C0008047FFF731FF0020CBE700003C010020D3
:1041D000B04F00085B495D5B6861707469635F6E36
:1041E000765D25733A207374617274206475726110
:1041F00074696F6E203D2025642C20696E6465789B
:10420000203D2025640D0A0038010020FCF7F6FD52
:104210004FF4E010FDF771FD4820FFF751FC4FF41B
:10422000E13000F055FCFCF71DFB05E04FF4FA709F
:10423000FFF750FCFCF770FAFCF76EFA0028F5D196
:104240000DA0FCF70FF8FFF7A9FD0BA0FCF70AF88B
:1042500011E0002240210948FCF7B8FD4FF47A70C4
:10426000FFF738FC012240210448FCF7AFFD4FF472
:104270007A70FFF72FFCECE72E0D0A0000200140BA
:104280007CB50020019000240090002500BF99E03B
:1042900000216846FFF784FE05467DB158204C4951
:1042A0004871084642794B494B48FBF7DBFF012137
:1042B0006846FFF775FE054605B186E09DF80000EB
:1042C000302857D005DC90B1012838D024286CD193
:1042D00004E0402857D0502867D15DE005203C49D4
:1042E00088613C493DA0FBF7BDFF00207CBD012259
:1042F00001A96420FFF7E6FD9DF8040000F04100ED
:10430000012807D13249886132493EA0FBF7AAFF54
:104310000020EBE79DF8040000F0410040B90220C6
:104320002B4988612B4941A0FBF79CFF0020DDE76A
:104330009DF80420274949A0FBF794FF3CE00122A7
:1043400001A96420FFF7BEFD9DF8040000F04100C4
:10435000412808D104201E4988611E494CA0FBF762
:1043600081FF0020C2E79DF804201A493BA0FBF71B
:1043700079FF21E006201649886116494EA0FBF717
:1043800071FF0020B2E7072011498861114954A04C
:10439000FBF768FF0020A9E708200D4988610D4957
:1043A00059A0FBF75FFF0020A0E79DF80020094916
:1043B0005FA0FBF757FF00BF00BF0220FFF7D6FD4D
:1043C000601CC4B2052CFFF663AF00BF01208DE76F
:1043D0003C0100204F500008D05100085B495D5B54
:1043E0006861707469635F6E765D25733A206465F9
:1043F000746563746564206177383632342E0D0A33
:10440000000000005B495D5B6861707469635F6E0A
:10441000765D25733A206177383632323320646511
:104420007465637465640D0A000000005B495D5BA0
:104430006861707469635F6E765D25733A20617799
:104440003836323234206F72206177383632323566
:104450002064657465637465640D0A005B495D5B87
:104460006861707469635F6E765D25733A20756E5E
:10447000737570706F727465642065665F6964201F
:104480003D2028307825303258290D0A00000000E0
:104490005B495D5B6861707469635F6E765D25730F
:1044A0003A2061773836323134206465746563743C
:1044B00065640D0A000000005B495D5B6861707413
:1044C00069635F6E765D25733A20617738363233E3
:1044D000332064657465637465640D0A0000000030
:1044E0005B495D5B6861707469635F6E765D2573BF
:1044F0003A206177383632333420646574656374EA
:1045000065640D0A000000005B495D5B68617074C2
:1045100069635F6E765D25733A2061773836323392
:10452000352064657465637465640D0A00000000DD
:104530005B495D5B6861707469635F6E765D25736E
:104540003A20756E737570706F7274206465766949
:104550006365207265766973696F6E2028307825EF
:10456000303258290D0A00002DE9F04105460E466B
:1045700017460024084909A0FBF774FE00BF07E0B6
:10458000385D315D884202D00120BDE8F081641CB5
:10459000AC42F5D30020F8E76B5000085B495D5B47
:1045A0006861707469635F6E765D25733A20656E2D
:1045B0007465720D0A00000010B500240020064941
:1045C00048700870FFF724FB08B1012010BD00F00F
:1045D00005F804462046F9E73C01002010B5002408
:1045E0000E480F49826D0FA0FBF73CFEFFF7DEF986
:1045F00004468CB90120094948700846816DC163A1
:10460000007918B111490968C8688047044910A0A9
:10461000FBF728FEFFF76AFB002010BD3C010020DD
:104620008B5000085B495D5B6861707469635F6E05
:10463000765D25733A2072616D206C6F6164207322
:10464000697A653A2025640D0A00000038010020CF
:104650005B495D5B6861707469635F6E765D25734D
:104660003A2072616D206669726D7761726520759E
:10467000706461746520636F6D706C657465210D85
:104680000A00000070B590B00024002500263C21EF
:1046900001A8FBF747FF22480068816A012088478C
:1046A0001F490968886980471D490968086E804765
:1046B0001CA0FBF7D7FD25E01F48C06B001B3C2862
:1046C00003D21D48C06B061B00E03C26144800685E
:1046D0003146C26D01A89047002510E001A8415D58
:1046E00016A0FBF7BFFD681CC11700EB1171091183
:1046F000A0EB011111B913A0FBF7B4FD6D1CB5427D
:10470000ECDB34440C48C06BA042D5D804480068A8
:10471000816A002088470BA0FBF7A4FD10B070BD94
:104720003801002061775F6861707469635F72614E
:104730006D3A0D0A000000003C0100203078253061
:1047400032582C000D0A000070B505460024002DDB
:104750002ED01D48007B01281ED11C490968486FD6
:1047600080471948006A41F2680148431649C969FF
:10477000B0FBF1F4B32C05DDB3242246144915A097
:10478000FBF770FDE0B2114A1268116C88471049BE
:1047900019A0FBF767FD16E00B4A92F820000B4AC0
:1047A0001268116C88470A491DA0FBF75BFD0AE0FF
:1047B000054A92F82000054A1268116C884704499E
:1047C00017A0FBF74FFD70BD3C0100203801002011
:1047D000974F00085B495D5B6861707469635F6E49
:1047E000765D25733A206761696E206C696D697426
:1047F0003D25640D0A0000005B495D5B68617074D3
:1048000069635F6E765D25733A2072616D20766212
:10481000617420636F6D70206F70656E0D0A00000B
:104820005B495D5B6861707469635F6E765D25737B
:104830003A2072616D207662617420636F6D702022
:10484000636C6F73650D0A0010B5002418488279F7
:10485000184919A0FBF706FD00201549C8620CE0B5
:1048600000F038FA0446012C01D1204610BDFFF7B4
:10487000EDFB04460CB92046F8E718490968D1F861
:104880008800804718B90A4880790428E8D0084889
:104890008079042804D111480068016F01208847FD
:1048A00003480449C26A0EA0FBF7DCFC0020DDE7E8
:1048B0003C0100200F5000085B495D5B686170742B
:1048C00069635F6E765D25733A20656E746572204C
:1048D0006D6F64652025640D0A000000380100201A
:1048E0005B495D5B6861707469635F6E765D2573BB
:1048F0003A20636E74203D2025642C20657869740D
:104900000D0A000010B500241B48C07800B910BD86
:104910001A481B4902681BA0FBF7A4FC012016499A
:104920000870224909688869804720480068016F3B
:10493000002088471D490968086980470020FFF763
:1049400003FF1A480068416A04208847002000F0ED
:10495000DBF816490968486980470220FFF706FB23
:10496000C82000F029F90446012C00D1CFE7FFF759
:104970006BFF00BFCBE700003C010020D00200200D
:104980002D5000085B495D5B6861707469635F6E00
:10499000765D25733A207274702066696C652073A9
:1049A000697A65203D2025640D0A00003801002049
:1049B00070B504460E4615462648407808B90120D1
:1049C00070BD0F2D05DA24B1224890F83800A042BE
:1049D00001DA0120F4E723462A461F491FA0FBF70E
:1049E00041FC1C48406B20B1FFF71FFB0020194918
:1049F000486326490968886980471648446201204F
:104A000000F082F80020FFF79FFE124890F8241073
:104A10001E480068426C002090471C480068002136
:104A2000426C01209047681EC1B218480068826C31
:104A30000020904715480068016C304688471348AD
:104A40000068416A01208847104909684869804721
:104A50000020B5E73C010020BE4F00085B495D5BCC
:104A60006861707469635F6E765D25733A20737454
:104A7000617274206C6F6F70203D2025642C20695A
:104A80006E646578203D2025640D0A003801002001
:104A900008B5AA200090064906A0FBF7E3FB012217
:104AA00069460020FFF746FA0220FFF75FFA08BDCB
:104AB000465000085B495D5B6861707469635F6EB6
:104AC000765D25733A20656E746572210D0A0000CB
:104AD00010B5044609480A490860084644600021A8
:104AE0008160C160016181610C214161FCF76CFE54
:104AF000012204490248FCF7F5FE10BD00380140D0
:104B00009C0300201A00002070B5054615B1012D48
:104B10000FD105E00B490CA0FBF7A4FB00240AE031
:104B20001448C27A074914A0FBF79CFB1148C47AC9
:104B300001E0002400BF00BF1E480068C16E20468F
:104B4000884770BDA54F00085B495D5B6861707464
:104B500069635F6E765D25733A20777269746520AC
:104B60007A65726F20746F207472696D5F6C726108
:104B7000210D0A003C0100205B495D5B6861707497
:104B800069635F6E765D25733A207772697465207C
:104B900066305F63616C695F6461746120746F206B
:104BA0007472696D5F6C7261203D203078253032FF
:104BB000580D0A003801002070B504460026002573
:104BC00015E011490968D1F88400804705462DB9E0
:104BD00001260E490EA0FBF745FB0AE0641E2A469B
:104BE0000A4912A0FBF73EFB0220FFF7BFF9002C99
:104BF000E7D100BF2EB904490968886980470120C0
:104C000070BD0020FCE700003801002019500008AA
:104C10005B495D5B6861707469635F6E765D257387
:104C20003A205254505F474F210D0A005B495D5BAB
:104C30006861707469635F6E765D25733A20776191
:104C4000697420666F72205254505F474F2C206762
:104C50006C625F73746174653D3078253032580D35
:104C60000A00000070B500240025104910A0FBF7D1
:104C7000F9FA16490968086E804712E01448806DF9
:104C8000001B3C2803DA1248806D051B00E03C2520
:104C90000F49C96D08190D4909688A6D2946904761
:104CA0002C440B48806DA042E8DC70BD5C500008CD
:104CB0005B495D5B6861707469635F6E765D2573E7
:104CC0003A20656E7465720D0A00000038010020FC
:104CD0003C0100202DE9F0410027164804681648E1
:104CE000C56A466C34B9154915A0FBF7BBFA01201B
:104CF000BDE8F081B54206D2601BB04201D2671B0D
:104D000008E0374606E0601BB0EB960F01D2671B48
:104D100000E0B7080849C96A134BC8181349096865
:104D2000CA6C394690470448C06A38440249C86290
:104D30000020DDE7D00200203C010020ED4F0008FC
:104D40005B495D5B6861707469635F6E765D257356
:104D50003A207274705F64617461206973206E75AB
:104D60006C6C0D0A00000000D80100203801002002
:104D7000000000000000000001020304060708090B
:104D80000000000001020304617738363278785F52
:104D9000636865636B5F7175616C696679006177E3
:104DA00038363278785F706C61795F73746F700039
:104DB000617738363278785F7365745F70776D002D
:104DC000617738363278785F706C61795F6D6F64C7
:104DD0006500617738363232785F636F6E66696777
:104DE00000617738363278785F70726F74656374FB
:104DF0005F636F6E66696700617738363278785F17
:104E00006D6973635F706172615F696E697400617F
:104E10007738363278785F6F66667365745F636182
:104E20006C6900617738363278785F766261745FDA
:104E30006D6F64655F636F6E6669670061773836B2
:104E40003278785F6765745F676C625F73746174F2
:104E50006500617738363278785F706C61795F67AA
:104E60006F00617738363278785F726561645F6CA5
:104E700072615F663000617738363278785F636FD1
:104E80006E745F6765745F663000617738363278BC
:104E9000785F63616C63756C6174655F63616C6995
:104EA0005F6461746100617738363278785F676576
:104EB000745F6669666F5F6164647200617738363B
:104EC0003278785F696E746572727570745F73653D
:104ED00074757000617738363278785F6861707405
:104EE00069635F73656C6563745F70696E00617799
:104EF00038363278785F6861707469635F7472699C
:104F0000675F706172616D5F636F6E666967006194
:104F10007738363278785F747269675F696E697462
:104F200000617738363278785F6765745F766261E2
:104F30007400617738363278785F6765745F6972BC
:104F4000715F737461746500617738363278785FA9
:104F50006972715F636C65617200617738363278AF
:104F6000785F6765745F6C72615F72657369737493
:104F7000616E636500617738363278785F636F6E93
:104F8000745F636F6E666967006765745F62617303
:104F9000655F616464720072616D5F766261745F07
:104FA000636F6D700075706C6F61645F6C7261002F
:104FB0006C6F6E675F7669625F776F726B007368A4
:104FC0006F72745F7669625F776F726B006A756487
:104FD00067655F77697468696E5F63616C695F724A
:104FE000616E67650066305F63616C690077726946
:104FF00074655F7274705F64617461006A75646780
:10500000655F7274705F6C6F61645F656E6400727F
:1050100074705F676F696E6700776169745F656E52
:105020007465725F7274705F6D6F64650072747026
:105030005F7669625F776F726B006765745F72613C
:105040006D5F6E756D0073775F7265736574007068
:10505000617273655F63686970696400777269740F
:10506000655F72616D5F6461746100706172736528
:105070005F72616D5F6461746100636F6E7461691A
:105080006E65725F7570646174650072616D5F6CEE
:105090006F6164006861707469635F6E765F626FF0
:1050A0006F745F696E6974006861707469635F6EC4
:1050B000765F726561645F636869706964006861E6
:1050C000707469635F6E765F7365745F63616C694A
:1050D0005F746F5F666C61736800686170746963A8
:1050E0005F6E765F6765745F63616C695F66726F40
:1050F0006D5F666C6173680030313233343536373A
:10510000383941424344454640305800303132330B
:10511000343536373839616263646566403078000B
:105120000400000800000000000000020001000070
:10513000100000005B495D5B6861707469635F6EBD
:10514000765D25733A20616C6D6F73745F656D7069
:1051500074795F7468726573686F6C64203D202594
:10516000642C616C6D6F73745F66756C6C5F7468D2
:10517000726573686F6C64203D2025640D0A000021
:105180005B495D5B6861707469635F6E765D257312
:105190003A2066305F707265203D2025642C2066C1
:1051A000305F63616C695F6D696E203D2025642C02
:1051B0002066305F63616C695F6D6178203D2025FA
:1051C000642C206630203D2025640D0A000000007C
:1051D0005B495D5B6861707469635F6E765D2573C2
:1051E0003A2074727920746F207265706C61636507
:1051F000206932632061646472205B283078253036
:105200003258295D20746F2072656164206368697B
:105210007020696420616761696E0D0A00000000FA
:105220004052000800000020D40200006C01000879
:1052300014540008D40200206C070000C8010008C4
:10524000115324F432100213013207232E090322D2
:10525000067F1A082D16041406060F6008020805BA
:1052600005B2FFEF3A0102718B01020913F122141A
:1052700008C1261408CD23140821381408C52D149C
:1052800008E92A14084D321B08591413D92F1408A1
:10529000A1301408F1331408352E1B0861201A853B
:1052A000281A3D1013F9211408ED351408AF371BE7
:1052B000085F041A29041AA5101A295013D93614A4
:1052C00008FD281B08B1081AEB041A75181A4D209E
:1052D0001A0904132D291B080F0413F5271B087145
:1052E0002C1A0D581A0D2001396A58E50112023F97
:1052F00080165508050837703409131C252E353CD7
:1053000042474B4E4F4F4F4C49453F39322A2118A7
:105310000E05FCF2E9DFD7CFC7C1BBB7B4B2B1B15C
:10532000B2B5B9BEC3CAD2DAE3ECF6381AFF011837
:1053300047FEFEFDFDFCFBFAF9F7F5F4F2F1F1F0A2
:10534000F0EFEFEFF0F0F1F2F3F4F6F8FBFE010608
:105350000B121A242D33383B3D3D3B38342E261B8F
:105360000EFFF1E4DAD2CBC5C0BCB8B6B3B1B0AE73
:10537000ADACABABAAAAA901AAA80129111015AA24
:10538000AAABACADAEAFB0B2B4B7BABDC2C7CED5A2
:10539000DEE9F518320C1A2A38434C52575B5E602E
:1053A0006263646565666665656462615F5C5955E4
:1053B000514B443C33271908F4DECCBCB0A59D9575
:1053C000908B8785838101181D8284878B8F959CA4
:1053D000A4AFBBCADCF3091D2E3C4751595F646979
:1053E0006C6F71727301182871706E6C6A686765F2
:1053F0006362605D5B5854504C463F372E26201A3E
:1054000016120F0C0A080706050403030202010125
:045410004132F7002E
:0400000508000131BD
:00000001FF
