:020000040800F2
:10000000680D002015020008291B0008DF180008F1
:10001000251B0008B7070008F51F000800000000B6
:10002000000000000000000000000000F91B0008B4
:10003000BB070008000000002B1B0008511C000833
:100040002F0200082F0200082F0200082F020008CC
:100050002F0200082F0200082F0200082F020008BC
:100060002F0200082F0200082F0200082F020008AC
:100070002F0200082F0200082F0200082F0200089C
:100080002F0200082F0200082F0200082F0200088C
:100090002F0200082F0200082F0200082F0200087C
:1000A0002F0200082F0200082F0200082F0200086C
:1000B0002F0200082F0200082F0200082F0200085C
:1000C0002F0200082F0200082F0200082F0200084C
:1000D0002F020008B51F00082F0200082F02000899
:1000E0002F0200082F0200082F0200082F0200082C
:1000F0002F0200082F0200082F0200082F0200081C
:100100002F0200082F0200082F0200082F0200080B
:100110002F0200082F0200082F0200082F020008FB
:100120002F0200082F0200082F0200082F020008EB
:1001300000F002F800F05FF80AA090E8000C82449A
:100140008344AAF10107DA4501D100F054F8AFF277
:10015000090EBAE80F0013F0010F18BFFB1A43F0A5
:10016000010318475C3A00007C3A00000A444FF053
:10017000000C10F8013B13F0070408BF10F8014B06
:100180001D1108BF10F8015B641E05D010F8016B4B
:10019000641E01F8016BF9D113F0080F1EBF10F8AF
:1001A000014BAD1C0C1B09D16D1E58BF01F801CBD2
:1001B000FAD505E014F8016B01F8016B6D1EF9D555
:1001C0009142D6D37047000000230024002500266A
:1001D000103A28BF78C1FBD8520728BF30C148BFAA
:1001E0000B607047782900F06B80002070471FB5C6
:1001F0001FBD10B510BD00F0DDF91146FFF7F7FF88
:1002000003F0C6F900F0FBF903B4FFF7F2FF03BCFB
:1002100001F015FF0948804709480047FEE7FEE75F
:10022000FEE7FEE7FEE7FEE7FEE7FEE7FEE7FEE7A6
:1002300004480549054A064B70470000591C000850
:100240003101000868070020680D002068090020BF
:1002500068090020704700000FB4044910B503AAD4
:10026000029800F079F910BC5DF814FB140000202E
:1002700070B5044685690068C10601D5302600E0E6
:100280002026C00707D070BDD4E901213046904731
:10029000206A401C20626D1EF6D570BD70B5044604
:1002A00085690078C00707D170BDD4E901212020FD
:1002B0009047206A401C20626D1EF6D570BD00007C
:1002C00070B504460D4621461068AFF300802188C2
:1002D000090502D50F4A7A4402E00E4A7A440E32EA
:1002E000002104F1240305E000F00F060009965DEB
:1002F0005E54491C0028F7D120780023000704D55C
:10030000702D02D009B1022311322046BDE87040A1
:1003100000F0C9B8AA3800002DE9F05F894604460C
:100320004FF0000ADFF824B1FB44C0F820A02046BB
:10033000E168884700287DD0252806D0D4E901212E
:100340009047206A401C2062F1E700255F46204666
:10035000E16888472028064607DB312E05D2B81908
:1003600010F8200C08B10543F1E7A80701D525F0E6
:100370000405C4F81CA00027C4F818A02A2E09D030
:10038000304601F055FE38B304EB8708303EC8F81C
:10039000186019E059F8041B204604EB87029161AC
:1003A000E1688847012F064618D1E069002820DA65
:1003B00025F020051DE0D8F8180000EB800006EBC2
:1003C00040003038C8F818002046E16888470646E3
:1003D00001F02EFE0028EED1012F0AD02E2E08D1DA
:1003E0002046E16888477F1C0646022F45F020051D
:1003F000C4DBA069002803DA404245F00105A06192
:10040000E80701D025F01005A6B1A6F14100192892
:1004100002D8203645F400654A463146204625601C
:100420004D46FFF7DFFE60B1012807D0ED1D25F036
:10043000070000E007E000F1080978E705F104098A
:1004400075E730467AE7206ABDE8F09F8038000003
:100450004FF0000200B5134694469646203922BF5D
:10046000A0E80C50A0E80C50B1F12001BFF4F7AFA8
:10047000090728BFA0E80C5048BF0CC05DF804EB8A
:10048000890028BF40F8042B08BF704748BF20F8F8
:10049000022B11F0804F18BF00F8012B70477047F6
:1004A0007047704770472DE9F0470D4699469246D0
:1004B000044600F124080168880604D5E06921F0AB
:1004C0001001216000E00120A84201DD471B00E08F
:1004D0000027A1697A1902EB0900081AA0612078A7
:1004E000C00602D42046FFF7C3FE002608E0D4E988
:1004F00001211AF806009047206A401C761C2062F1
:100500004E45F4DB2078C0060AD52046FFF7B0FE42
:1005100006E0D4E9012130209047206A401C206287
:10052000381EA7F10107F4DC07E0D4E9012118F82F
:1005300005009047206A401C2062281EA5F1010595
:10054000F3DC2046FFF7AAFE2078000602D5022041
:10055000BDE8F0870120FBE7074B70B50D467B44F3
:1005600000F011F80446284600F020F810B14FF0D2
:10057000FF3070BD204670BDD72B000001694A1CBA
:1005800002610878704700B58FB0CDE901310021D4
:10059000059105497944CDE9031011466846FFF7F6
:1005A000BBFE0FB000BD0000E5FFFFFF007B00F0C9
:1005B00080007047754600F02BF8AE46050069468E
:1005C000534620F00700854618B020B5FFF730FEEF
:1005D000BDE820404FF000064FF000074FF0000844
:1005E0004FF0000B21F00701AC46ACE8C009ACE8C5
:1005F000C009ACE8C009ACE8C0098D46704710B529
:100600000446AFF300802046BDE81040FFF7FCBD74
:10061000004870470807002010B50A2000F013F8C2
:100620000446552C01D1002010BD55210A2000F0B0
:1006300036F80A2000F007F80446552C01D10020B6
:10064000F2E70120F0E770B50446002601F008FA51
:100650002546E11704EB11610912B02202EB4101BA
:10066000C8B201F0CBF901F033FAE11704EB1161E4
:100670000912A4EB0121C8B201F0C0F901F028FA77
:1006800001F0EEF9B12001F0B9F901F021FA0020F2
:1006900001F088F9064601F001FA304670BD70B5E8
:1006A00004460E4601F0DCF92546E11704EB116122
:1006B0000912B02202EB4101C8B201F09FF901F02A
:1006C00007FAE11704EB11610912A4EB0121C8B28A
:1006D00001F094F901F0FCF9304601F08FF901F0D6
:1006E000F7F901F0DBF90A2002F0C8FC70BD2DE932
:1006F000F0410746884615461E46002401F0B0F931
:10070000384601F07BF901F0E3F910B10020BDE8B3
:10071000F081404601F072F901F0DAF908B10020E9
:10072000F5E701F09DF9791CC8B201F067F901F015
:10073000CFF908B10020EAE700240DE0681EA042CE
:1007400004D0012001F02EF9305503E0002001F023
:1007500029F93055601CC4B2AC42EFDB01F09EF9C0
:100760002046D4E710B501F0D9F801F0DFF910BD4B
:100770002DE9F04180460D4616461F46002401F043
:100780006FF9404601F03AF901F0A2F9284601F06C
:1007900035F901F09DF900BF06E0385D01F02EF952
:1007A00001F096F9601CC4B2B442F6DB01F076F9B0
:1007B0000120BDE8F08100BFFEE7704770B5044638
:1007C000002594F82100022803D00420A06301250D
:1007D000C1E02068006820F00E00216808602068F1
:1007E000006820F00100216808605C4920688842A8
:1007F00052D95A4978392068884201D1012047E00E
:10080000564964392068884201D1102040E053499C
:1008100050392068884201D1801539E04F493C3970
:100820002068884201D1801432E04C492839206880
:10083000884202D14FF480302AE0484914392068B8
:10084000884202D14FF4801022E044492068884257
:1008500001D140041CE042492068884201D10120B6
:1008600016E03F4914312068884201D110200FE082
:100870003B4928312068884201D1801508E0384979
:100880003C312068884201D1801401E04FF480306F
:100890003349091F086051E030497839206888429F
:1008A00001D1012047E02D4964392068884201D1F7
:1008B000102040E0294950392068884201D1801534
:1008C00039E026493C392068884201D1801432E061
:1008D000224928392068884202D14FF480302AE02A
:1008E0001E4914392068884202D14FF4801022E05A
:1008F0001A492068884201D140041CE01849206848
:10090000884201D1012016E015491431206888423F
:1009100001D110200FE0124928312068884201D10E
:10092000801508E00E493C312068884201D18014CE
:1009300001E04FF48030094980394860012084F893
:10094000210000BF002084F8200000BF606B10B1C0
:100950002046616B8847284670BD00008000024039
:100960000804024070B5044600F0B6F90646254674
:10097000681C10B104480078054400BF00F0ACF9D1
:10098000801BA842FAD370BD0C0000202DE9F84767
:10099000024600239C467BE14FF0010808FA03F46D
:1009A000D1F8008008EA0400A0427DD1DFF8F4A26B
:1009B000D1F80480A8EB0A09D0453AD014DCB8F18C
:1009C000030F50D009DCB8F1000F31D0B8F1010F9E
:1009D0001CD0B8F1020F49D120E0B8F1110F18D0A6
:1009E000B8F1120F42D11EE0B9F5881F25D006DC00
:1009F000B9F5803F20D0B9F5801F37D11AE0B9F59D
:100A0000001F18D0B9F5041F30D117E0D1F80CC081
:100A10002DE0D1F80C8008F1040C28E0D1F80C800E
:100A200008F1080C23E0D1F80C8008F10C0C1EE052
:100A300000BF00BF00BF00BF00BF00BFD1F80880EB
:100A4000B8F1000F02D14FF0040C0BE0D1F8088090
:100A5000B8F1010F03D14FF0080C146102E04FF020
:100A6000080C546103E04FF0000C00E000BF00BF31
:100A7000FF2801D8904601E002F104084646FF280D
:100A800002D84FEA830803E0A3F108084FEA880878
:100A90004746D6F800804FF00F0909FA07F928EA0F
:100AA00009080CFA07F900E07AE048EA0908C6F8F4
:100AB0000080D1F8048008F08058B8F1805F6FD1D1
:100AC00000BFDFF8E481D8F8188048F00108DFF8AB
:100AD000D891C9F81880C846D8F8188008F00108DD
:100AE000CDF8008000BF00BF4FEAB9384FEA930944
:100AF00058F829504FEA83784FEA18794FF00F08D9
:100B000008FA09F825EA0805DFF8A081424502D174
:100B10004FF0000824E0DFF89881424502D14FF001
:100B200001081DE0DFF88C81424502D14FF0020838
:100B300016E0DFF88481424502D14FF003080FE050
:100B4000DFF87881424502D14FF0040808E0DFF871
:100B50007081424502D14FF0050801E04FF00608D0
:100B60004FEA83794FEA197908FA09F848EA050546
:100B7000DFF850814FEA930948F82950D1F80480F2
:100B800008F48038B8F5803F0BD1DFF83C81D8F805
:100B9000008048EA0008DFF83091C9F800800AE0D8
:100BA00075E0DFF82481D8F8008028EA0008DFF833
:100BB0001891C9F80080D1F8048008F40038B8F51D
:100BC000003F0ED1DFF8008108F10408D8F800805A
:100BD00048EA0008DFF8F09009F10409C9F800803C
:100BE0000DE0DFF8E48008F10408D8F8008028EA76
:100BF0000008DFF8D49009F10409C9F80080D1F8A1
:100C0000048008F48018B8F5801F0ED1DFF8B88092
:100C100008F10808D8F8008048EA0008DFF8A89032
:100C200009F10809C9F800800DE0DFF89C8008F19F
:100C30000808D8F8008028EA0008DFF88C9009F14D
:100C40000809C9F80080D1F8048008F40018B8F544
:100C5000001F0ED1DFF8708008F10C08D8F8008072
:100C600048EA0008DFF8609009F10C09C9F8008033
:100C70000DE0DFF8548008F10C08D8F8008028EA6D
:100C80000008DFF8449009F10C09C9F800805B1CEA
:100C9000D1F8008028FA03F8B8F1000F7FF47CAE99
:100CA000BDE8F88700001110001002400008014064
:100CB000000C0140001001400014014000180140E8
:100CC000001C014008000140000401400AB101611C
:100CD00001E00B04036170470148006870470000A1
:100CE00004000020034800680349097808440149CA
:100CF00008607047040000200C00002010B5084870
:100D0000006840F0100006490860052000F080F8F7
:100D10000F2000F007F800F02BF8002010BD0000B5
:100D20000020024070B504460E4800784FF47A71F6
:100D3000B1FBF0F00C490968B1FBF0F5284600F072
:100D4000F7FB08B1012070BD102C07D2002221460C
:100D5000501E00F01EF80548046001E00120F2E793
:100D60000020F0E70C000020000000200800002018
:100D7000704701460846002809DB00F01F030122E6
:100D80009A4043099B0003F1E023C3F8002100BF10
:100D900070472DE9F05F80460D461646002701F0AA
:100DA0002BF9074639462A46334601F00700C0F1C1
:100DB000070ABAF1040F02D94FF0040A01E0C0F1AA
:100DC000070AD14600F1040ABAF1070F02D24FF028
:100DD000000A01E0A0F1030AD4464FF0010A0AFA22
:100DE00009FAAAF1010A0AEA020A0AFA0CFA4FF011
:100DF000010B0BFA0CFBABF1010B0BEA030B4AEAFC
:100E00000B042146404601F0FFF8BDE8F09F0000CA
:100E100000BF00F00702064B19684FF6FF031940A8
:100E2000044B0B4343EA0221014B196000BF70479A
:100E30000CED00E00000FA0570B504460D460CB953
:100E4000012070BD5A48006800F00700A8420ED289
:100E50005748006820F007002843554908600846B5
:100E6000006800F00700A84201D00120E9E72078DF
:100E700000F0020002281DD1207800F004000428B0
:100E800005D14C48406840F4E0604A494860207809
:100E900000F00800082805D14648406840F460503A
:100EA000444948604348406820F0F000A168084386
:100EB00040494860207800F0010078B3606801285C
:100EC00006D13C48006800F4003090B90120B8E732
:100ED0006068022806D13748006800F0007040B909
:100EE0000120AEE73348006800F0020008B9012095
:100EF000A7E73048406820F00300616808432D49A7
:100F00004860FFF7E9FE064609E0FFF7E5FE801BB3
:100F100041F28831884202D9032092E707E0254850
:100F2000406800F00C006168B0EB810FEDD1204803
:100F3000006800F00700A8420ED91D48006820F0A4
:100F4000070028431A4908600846006800F00700B7
:100F5000A84201D0012074E7207800F004000428A2
:100F600007D11448406820F4E060E1680843114963
:100F70004860207800F00800082808D10D48406833
:100F800020F46050216940EAC1000A49486000F03D
:100F90003FF808494968C1F30311074A515CC8404A
:100FA0000649086006480068FFF7BCFE002048E7D5
:100FB00000200240001002406C3B000800000020AE
:100FC0000800002001480068704700000000002071
:100FD00000B5FFF7F7FF04494968C1F30221034A4E
:100FE000515CC84000BD0000001002407C3B00087E
:100FF00000B5FFF7E7FF04494968C1F3C221034A7E
:10100000515CC84000BD0000001002407C3B00085D
:10101000F0B585B00FF26C0C9CE8E01001A8A0E8D8
:10102000E0101CA52D68009500210022002300245B
:101030000020194D696801F00C05F5B1042D02D0AE
:10104000082D19D101E0154819E001ADC1F383461F
:10105000AC5D01F4803555B10F4D6D68C5F3404569
:101060001DF805200D4D6543B5FBF2F302E00C4D74
:1010700004FB05F3184602E000BF084800BF00BFAC
:1010800005B0F0BD02030405060708090A0B0C0DA4
:101090000E0F1010010200000010024000127A0032
:1010A00000093D00F8B504460CB90120F8BD2078D0
:1010B00000F00100002878D0F848406800F00C00EB
:1010C00004280CD0F548406800F00C00082811D125
:1010D000F248406800F48030B0F5803F0AD1EF4814
:1010E000006800F4003000285FD0606800285CD100
:1010F0000120DBE700BF6068B0F5803F06D1E7481C
:10110000006840F48030E549086028E0606858B91C
:10111000E248006820F48030E04908600846006832
:1011200020F4802008601AE06068B0F5A02F0BD191
:10113000DA48006840F48020D84908600846006812
:1011400040F4803008600AE0D448006820F4803021
:10115000D24908600846006820F48020086000BF7B
:10116000606888B1FFF7B8FD054606E0FFF7B4FDFB
:10117000401B642801D9032098E7C848006800F4A0
:1011800000300028F2D010E0FFF7A6FD054606E08B
:10119000FFF7A2FD401B642801D9032086E7BF4862
:1011A000006800F400300028F2D1207800F002003E
:1011B000022857D1B948406800F00C0050B1B74838
:1011C000406800F00C00082818D1B448406800F4CA
:1011D000803098B9B148006800F0020020B1206961
:1011E000012801D0012061E7AC48006820F0F80038
:1011F000616940EAC100A949086033E02069E8B1AB
:101200000120A7490860FFF767FD054606E0FFF7E4
:1012100063FD401B022801D9032047E79F4800686F
:1012200000F002000028F2D09C48006820F0F8008E
:10123000616940EAC1009949086013E000209849BB
:101240000860FFF749FD054606E0FFF745FD401B36
:10125000022801D9032029E79048006800F0020025
:101260000028F2D1207800F0080008282DD1A069CC
:10127000B8B101208B490860FFF72EFD054606E056
:10128000FFF72AFD401B022801D903200EE78348FF
:10129000406A00F002000028F2D0012000F06CFC4F
:1012A00013E000207F490860FFF716FD054606E0C1
:1012B000FFF712FD401B022801D90320F6E677480C
:1012C000406A00F002000028F2D1207800F004000B
:1012D000042873D100277148C06900F0805070B9AC
:1012E00000BF6E48C06940F080506C49C861084634
:1012F000C06900F08050009000BF00BF01276A481D
:10130000006800F48070B0B96748006840F48070ED
:1013100065490860FFF7E0FC054606E0FFF7DCFCE6
:10132000401B642801D90320C0E65F48006800F430
:1013300080700028F2D000BFE068012806D157482D
:10134000006A40F001005549086227E0E06858B99A
:101350005248006A20F00100504908620846006ABD
:1013600020F00400086219E0E06805280BD14B4822
:10137000006A40F00400494908620846006A40F0EB
:10138000010008620AE04548006A20F00100434974
:1013900008620846006A20F00400086200BFE068A6
:1013A000A0B1FFF799FC054609E0FFF795FC401B4B
:1013B00041F28831884202D9032077E622E037489B
:1013C000006A00F002000028EFD012E0FFF784FC72
:1013D000054608E0FFF780FC401B41F28831884257
:1013E00001D9032062E62D48006A00F002000028BF
:1013F000F0D1012F05D12948C06920F0805027493C
:10140000C86100BFE069C8B32448406800F00C0020
:10141000082860D0E069022848D1002020490866E9
:10142000FFF75AFC054606E0FFF756FC401B022872
:1014300001D903203AE61948006800F0007000283E
:10144000F2D1206AB0F5803F07D11448406820F4FB
:101450000030A168084311494860D4E908010843F5
:101460000E49496821F4741108430C494860012071
:101470000B490866FFF730FC054607E03DE0FFF743
:101480002BFC401B022801D903200FE6034800680B
:1014900000F000700028F2D02FE0000000100240A1
:1014A0000000424280044242007000400020144983
:1014B0000866FFF711FC054606E0FFF70DFC401B30
:1014C000022801D90320F1E50E48006800F0007001
:1014D0000028F2D111E0E069012800D1E6E50948D1
:1014E000466806F48031206A814204D106F4701106
:1014F000606A814201D00120D8E50020D6E50000D5
:101500000000424200100240042808D14FF0E021C0
:10151000096941F004014FF0E022116107E04FF04A
:10152000E021096921F004014FF0E02211617047C8
:1015300070B504462546681EB0F1807F01D30120B6
:101540000FE0681E4FF0E02148610F214FF0FF309F
:1015500000F05AFD00204FF0E0218861072008616B
:10156000002070BD704701460022002391F8392009
:1015700091F83A3042EA0300704700002DE9F04745
:101580000446206805682068C668206847694FF0EF
:101590000008C14605F00F08B8F1000F0AD105F0A8
:1015A000200038B106F0200020B1204600F0AAFB50
:1015B000BDE8F087B8F1000F6DD007F0010018B951
:1015C00006F49070002866D005F0010030B106F4F2
:1015D000807018B1E06B40F00100E06305F004009A
:1015E00030B107F0010018B1E06B40F00200E06399
:1015F00005F0020030B107F0010018B1E06B40F0D7
:101600000400E06305F0080030B107F0010018B1F4
:10161000E06B40F00800E063E06B68B305F0200089
:1016200028B106F0200010B1204600F06BFB2068C6
:101630004069C0F38019E06B00F0080010B9B9F1FF
:10164000000F22D0204600F03DFB2068406900F0EA
:101650004000B0B12068406920F040002168486136
:10166000606B50B11748616B4863606BFFF7A6F879
:1016700010B1606B416B88470CE02046FFF772FFAA
:1016800008E02046FFF76EFF04E02046FFF76AFF00
:101690000020E0638CE705F0800030B106F08000A8
:1016A00018B1204600F052FC82E705F0400030B14E
:1016B00006F0400018B1204600F014FB78E700BFA8
:1016C00076E70000B11C000810B504460CB90120F3
:1016D00010BDA06900B100E000BF94F8390028B93E
:1016E000002084F83800204600F028F8242084F8F0
:1016F00039002068C06820F400502168C860204686
:1017000000F054FB2068006920F4904021680861D3
:101710002068406920F02A00216848612068C0687C
:1017200040F400502168C8600020E063202084F865
:10173000390084F83A000020CAE7000010B586B0EE
:10174000044625492068884244D100BF2348806967
:1017500040F00400214988610846806900F00400D7
:10176000019000BF00BF00BF0846806940F4804080
:1017700088610846806900F48040019000BF00BF86
:1017800000BF0846806940F0010088610846806912
:1017900000F00100019000BF00BF48150290022038
:1017A0000390012004900320059002A90C48FFF744
:1017B000EDF84FF4806002900020039002A90848E1
:1017C000FFF7E4F82520FFF7D4FA0322114625207D
:1017D000FFF7DFFA06B010BD0038014000100240EC
:1017E0000008014010B5034693F83A0020282FD195
:1017F00001B10AB9012010BD00BF93F838000128DB
:1018000001D10220F7E7012083F8380000BF996278
:101810009A85DA850020D863222083F83A0000BF39
:10182000002083F8380000BF1868C06840F480705A
:101830001C68E0601868406940F001001C68606145
:101840001868C06840F020001C68E0600020D2E703
:101850000220D0E71D4A0168914236D11C4909880F
:1018600001F4004189BB1A49098801F4804171B132
:10187000184909780A2903D00021154A118024E06B
:101880001349098841F40041114A11801DE01149B2
:1018900009780D2906D10E49098841F480410C4A86
:1018A000118012E00B490978094A1288C2F30D022F
:1018B000094B995406490988491C054A118011466B
:1018C0000988C72901DD00211180704700380140D7
:1018D000180000201A00002000060020704700BFFA
:1018E000FEE7000010B500200A49086000F06EF91C
:1018F00000200949C1F8B001022001F0CBFB012012
:1019000004490860022001F0C5FB00200249C1F82B
:10191000B40110BDB48122420080224200B585B0DE
:101920000020019002900390049000BF0D48806950
:1019300040F020000B4988610846806900F02000D3
:10194000009000BF00BF4FF4405001901120029062
:10195000002003900320049001A90348FFF716F824
:1019600005B000BD001002400014014010B5002079
:101970000A49086000F02AF901200949C1F8B001BC
:10198000022001F087FB012004490860022001F0D9
:1019900081FB00200249C1F8B40110BDB48122428C
:1019A0000080224270B50546002400F0F9F80026B8
:1019B00016E000200F490860022001F06BFB0120B7
:1019C0000D49C1F8B4016006040E0A488438006865
:1019D00008B1601CC4B2022001F05CFB701CC6B2EE
:1019E000082EE6DB15B9FFF7C1FF01E0FFF77AFF2C
:1019F000204670BDB48122420080224270B5044668
:101A000000F0E4F8002014490860012001F042FBD6
:101A100000251EE0E00920B101200F49091F0860E0
:101A200003E000200C49091F08606006040E022034
:101A300001F030FB012008490860022001F02AFB78
:101A400000200649C1F8B401022001F023FB681C04
:101A5000C5B2082DDEDB70BDB48122420080224277
:101A600010B500F0B3F801200A4908600A49C1F82E
:101A7000B401022001F00EFB00200649086002209C
:101A800001F008FB00200449C1F8B401022001F074
:101A900001FB10BDB08122420080224210B500F04F
:101AA00095F80020084908600849C1F8B0010220F3
:101AB00001F0F0FA0120044908600449C1F8B001BE
:101AC000022001F0E7FA10BDB481224200802242D8
:101AD00010B5002400F064F801201049086001F0FE
:101AE000D9FA01200E49C1F8B40101F0D3FA0AE095
:101AF000601CC4B2FA2C03DDFFF7D0FF012010BD3B
:101B0000012001F0C7FA0548803800680028EFD1AD
:101B10000249091D086000BFF1E70000B0812242C0
:101B20000080224200BFFEE77047704700B585B0D5
:101B300000BF0F48806940F480700D4988610846F5
:101B4000806900F48070009000BF00BF40200190C9
:101B50000120029003900320049001A90548FEF79C
:101B600015FF002240210348FFF7B0F805B000BD83
:101B7000001002400020014008B508490968C90862
:101B80004FF47A72B1FBF2F14143009100BF00BF04
:101B900000994A1E00920029F9D108BD00000020DA
:101BA0001FB5002000900190029003904FF48050E8
:101BB00000900020019002900320039069460248A3
:101BC000FEF7E4FE1FBD0000001401401FB5002019
:101BD00000900190029003904FF4805000901120EB
:101BE0000190002002900320039069460148FEF70F
:101BF000CDFE1FBD00140140704730B58FB00546C3
:101C00000024012005900004069000200790022087
:101C10000C90C1030D910E9505A8FFF743FA0446F9
:101C20000CB100BFFEE70F200090022001900020C1
:101C300002904FF4806003900020049002216846D7
:101C4000FFF7FAF804460CB100BFFEE70FB030BD55
:101C500010B5FFF747F810BD1148006840F00100CB
:101C60000F490860084640680E4908400C49486022
:101C7000084600680C4908400949086008460068A1
:101C800020F4802008600846406820F4FE00486088
:101C90004FF41F008860C8030449086070470000C3
:101CA000001002400000FFF8FFFFF6FE08ED00E024
:101CB00070B505466C6A0020E085E0842046FFF799
:101CC00051FC70BD0168C96821F490710268D1604F
:101CD0000168496921F0010102685161202180F801
:101CE0003A10704710B504462068C06820F04000E4
:101CF0002168C860202084F839002046FFF7EEFDF7
:101D0000002010BD70B5044694F83A0022284AD14C
:101D1000A068B0F5805F13D1A56A206940B920683A
:101D20004068C0F308002880A06A801CA06219E007
:101D300020684068C0B22880A06A401CA06211E000
:101D4000206938B920684068C1B2A26A501CA062FC
:101D5000117007E02068406800F07F01A26A501C03
:101D6000A0621170E08D401E80B2E085C8B9206885
:101D7000C06820F020002168C8602068C06820F496
:101D800080702168C8602068406920F001002168E7
:101D90004861202084F83A002046FFF75BFD0020D0
:101DA00070BD0020FCE70220FAE7000070B5044691
:101DB0002168096921F44051E268114322681161E8
:101DC0002269A1681143626941EA02052168C96874
:101DD00041F20C62914329432268D160216849692C
:101DE00021F44071A269114322685161564A216869
:101DF000914254D1FFF7FCF800EBC00101EB001158
:101E000062689200B1FBF2F100EBC00202EB00123B
:101E100063689B00B2FBF3F26423B2FBF3F202EBC4
:101E2000C20303EB0212A1EB8201322202EB011189
:101E30006422B1FBF2F101F0F00100EBC00202EB11
:101E4000001263689B00B2FBF3F26423B2FBF3F26F
:101E500001EB021200EBC00101EB001163689B0073
:101E6000B1FBF3F100EBC00303EB00136668B600AF
:101E7000B3FBF6F36426B3FBF6F303EBC30606EB02
:101E80000313A1EB8301322303EB01116423B1FBA4
:101E9000F3F101F00F0111442268916053E0FFF764
:101EA00097F800EBC00101EB001162689200B1FBF2
:101EB000F2F100EBC00202EB001263689B00B2FB80
:101EC000F3F26423B2FBF3F202EBC20303EB021260
:101ED000A1EB8201322202EB01116422B1FBF2F18B
:101EE00001F0F00100EBC00202EB001263689B00FE
:101EF000B2FBF3F26423B2FBF3F201EB021200EB4C
:101F0000C00101EB001163689B00B1FBF3F100EB32
:101F1000C00303EB00136668B600B3FBF6F3642658
:101F2000B3FBF6F303EBC30606EB0313A1EB83014C
:101F3000322303EB01116423B1FBF3F101F00F0134
:101F400011442268916070BD00380140014691F84B
:101F5000390021282CD18868B0F5805F0FD10A6A3A
:101F60001088C0F308000B685860086918B9086A3F
:101F7000801C086209E0086A401C086205E00B6AE0
:101F8000581C086218780B685860C88C401E80B2D4
:101F9000C88458B90868C06820F080000B68D86011
:101FA0000868C06840F040000B68D86000207047A7
:101FB0000220FCE710B500240C48FFF7DFFA00BF51
:101FC00001E0641C00BF0948FFF7CDFA2028F8D1D2
:101FD00000BF002401E0641C00BF01220449034843
:101FE000FFF700FC0028F6D100BF10BDC806002096
:101FF0001A00002000BFFEE702480068C0F302207C
:10200000704700000CED00E010B5002804DB0A0763
:10201000130E054A135406E00A07140E034A00F093
:102020000F031B1FD45410BD00E400E018ED00E0C6
:1020300030380A2801D2012070470020704700BFC5
:102040007047000008B500200090022000F0D1FE8B
:102050001649496D087800F02BF810226FF018012E
:102060003A2001F07FF9C022D143772001F07AF9BC
:102070000E48406D90F8370048B10C48406D90F81C
:102080003700009001226946212001F087F90748B6
:10209000406D90F83B0040B10448406D90F83B2003
:1020A0006FF00F011C2001F05DF908BD3C0100201C
:1020B00010B504462CB10422D143082001F052F996
:1020C00004E00022511F082001F04CF910BD00006F
:1020D000002100BF214A1269204B5B6D9B68D21A18
:1020E0001F4B5A431D4B1B6903EB4303DB0092FB61
:1020F000F3F0002812DB0A2290FBF2F302FB13023A
:10210000052A05DB0A2290FBF2F202F1210018E019
:102110000A2290FBF2F202F1200012E00A2290FB68
:10212000F2F302FB130212F1050F05DC0A2290FB09
:10213000F2F202F11F0004E00A2290FBF2F202F137
:1021400020001F2803DDA0F12002D1B202E000F13F
:102150002002D1B2014AD172704700003C01002038
:10216000A086010038B500200090002401226946B5
:10217000642001F0DBF804460CB1204638BD9DF820
:10218000000000F08000802801D10020F6E7012047
:10219000F4E7000008B500200090032000F0FCFBED
:1021A0000E48406D407B40F080026FF0FF011D2023
:1021B00001F0D8F80948406D807B00900122694603
:1021C0001E2001F0EBF8FF2000900122694620203C
:1021D00001F0E4F8012000F0C4FB08BD3C01002040
:1021E0002DE9F84300260027002000900024C82590
:1021F00080465548406D80685349086100F018FCDE
:10220000032000F0C9FB0822D143182001F0AAF8EE
:102210008022D1431D2001F0A5F801226946082043
:1022200001F084F89DF8000000F004070422611F0B
:10223000082001F097F84448406D427B6FF07F0121
:102240001D2001F08FF84048406D807B8DF8000024
:10225000012269461E2001F0A1F83B48406D90F82C
:1022600034008DF800003848406D90F835008DF846
:102270000100022269461F2001F090F83248406DAB
:1022800090F8380050B13048406D90F838008DF823
:10229000000001226946222001F080F82A48406DA2
:1022A000806810B90120BDE8F8832748406D806838
:1022B0002649B1FBF0F02449496D91F83810401AD5
:1022C0002149496D91F83B10401AA0F10804002CF7
:1022D00000DA0024FF2C00DDFF24E0B28DF80000BE
:1022E000012269461A2001F059F8012000F039FB5B
:1022F000142001F06FF810E0012269463F2001F040
:1023000015F89DF8000000F00F0010B90025012617
:1023100000E06D1E0A2001F05DF8002DECD11EB129
:1023200000F0ECFBA84601E04FF0010800226FF03E
:102330000801182001F016F83A466FF00401082051
:1023400001F010F84046AEE73C01002080A90300F0
:10235000F8B5002400250026002700200090032265
:1023600069462F2000F0E2FF9DF8000004099DF867
:1023700001609DF8000000F00F059DF80270F8BDA7
:1023800008B500200090012269463F2000F0CEFFF2
:102390009DF8000008BD38B50020009000240122FF
:1023A0006946022000F0C2FF9DF8000000F0200006
:1023B00000B101249DF8000000F0040000B10224E7
:1023C0009DF8000000F0020000B103249DF8000019
:1023D00000F0010000B104249DF8000000F00800A6
:1023E00000B105249DF8000000F0100000B10624A3
:1023F000204638BDF8B500200090002700240025B5
:10240000002600F015FB01226946492000F08EFFEE
:102410009DF8000000F007072C48406D90F83C2024
:102420006FF00701492000F09DFF2849496D91F8A0
:102430003C0000F0CDFB0646002E00DAF8BD01207E
:1024400000F04BFB00F0F4FA022000F0C3FF002282
:102450006FF04001442000F085FF1022D14351204D
:1024600000F080FF0122D11E522000F07BFF0320EC
:1024700000F0B0FF01226946532000F057FF9DF89D
:1024800000002043840001226946572000F04EFFDF
:102490009DF8000000F00300044340F2A62104FB75
:1024A00001F064214843B102B0FBF1F505EB850072
:1024B000400006494861002000F00FFB3A466FF0EB
:1024C0000701492000F04EFF00BFB7E73C010020A4
:1024D00070B504460D46AAB22146422000F026FF00
:1024E00070BD10B53121002000F02CFB41213320BC
:1024F00000F028FB7721432000F024FB10BD0000F2
:1025000038B500200090002400F092FA012000F07D
:10251000E4FA0222511F522000F024FF022000F0B2
:1025200059FF01226946552000F000FF9DF8000088
:102530002043840001226946572000F0F7FE9DF8F1
:102540000000C0F30110044341F2D4706043800ADC
:102550000B49C8610846C06941F29411884202D90A
:1025600008460749C8610648C06940F6B831884244
:1025700002D208460249C861002000F0AEFA38BD18
:102580003C01002010B5044634B900226FF0080168
:10259000442000F0E7FE06E0032C04D10822D143DA
:1025A000442000F0DFFE10BD10B5012000F0D9F985
:1025B00010BD00007CB5054600240020019000906D
:1025C00062488069022803D06048806903280AD1E4
:1025D0005E48807838B1002000F0BAF80320FFF799
:1025E000D1FF01207CBD25B1012D41D0022D73D139
:1025F00073E056488069022803D054488069032854
:1026000002D10020FFF7BEFF5048806C00798000A7
:102610004E49896CC97840EA41004C49896C8978F7
:102620000843C4B26007020E6FF0E001392000F0E9
:1026300099FE4648806CC0794449896C497940EAE2
:10264000C110C0B20190012201A9332000F0A6FE02
:102650003E48806C007A3D49896C897940EAC11016
:10266000C0B2009001226946362000F097FE69E072
:102670003648C06C007981003448C06CC07841EAAB
:1026800040003249C96C89780843C4B26006020E22
:102690006FF00E01392000F065FE2C48C06CC17946
:1026A0002A48C06C407941EAC010C0B201900122B2
:1026B00001A9342000F072FE2448C06C017A23483E
:1026C000C06C807941EAC010C0B200900122694616
:1026D000372000F063FE35E033E01C48006D0079E0
:1026E00081001A48006DC07841EA40001749096D21
:1026F00089780843C4B26007020E6FF0E0013A2007
:1027000000F030FE1148006DC1791048006D40792D
:1027100041EAC010C0B20190012201A9352000F0A9
:102720003DFE0A48006D017A0848006D807941EA53
:10273000C010C0B2009001226946382000F02EFE81
:1027400000E000BF00BF00204CE700003C0100207B
:1027500020B1012806D002280CD107E00749084A19
:10276000916408E0074A0649CA6404E0064A04493D
:102770000A6500E000BF00BF704700006000002055
:102780003C010020690000207200002008B50020F4
:10279000009001226946022000F0C8FD10226FF06F
:1027A0003001492000F0DEFD19226FF03F010320C7
:1027B00000F0D8FD08BD08B5002000900122694650
:1027C000022000F0B3FD08BD08B5002000900122F2
:1027D00069463F2000F0AAFD9DF8000000F00F00C0
:1027E000082801D1002008BD9DF80000FBE700008B
:1027F00008B5002000904022D143492000F0B2FDEE
:102800004448406D90F83D008DF800004148406D0F
:1028100090F83E008DF801003E48406D90F83F0072
:102820008DF802003B48406D90F840008DF80300A1
:1028300004226946452000F0B1FD3648406D90F80D
:1028400036008DF80000012269461B2000F0A6FD2D
:102850003048406D90F83C0040B12E48406D90F8F3
:102860003C206FF00701492000F07CFD2948406DB5
:10287000007BA8B12748406D90F83A0080B1254808
:10288000406D90F83A002349496D097B40EA0110F8
:10289000C0B28DF8000001226946242000F07EFDC0
:1028A0001C48406D8068B0F5E16F01D21A4800E025
:1028B0001A484FF47A7190FBF1F01649496D096B93
:1028C00048434EF64861B0FBF1F01249496D8873F8
:1028D0001048406D807B7F2803DD7F200D49496DC6
:1028E00088730C488069012804D0022803D003288B
:1028F00005D101E000BF00BFFFF7A4FB00E000BF6F
:1029000000BF022000F0CEF93F21322000F0C2F8D3
:1029100008BD00003C010020009E1B0000611E005D
:1029200038B5002000904FF4FA64012000F0D5F88B
:102930000122D11E522000F015FD0CE00122694653
:10294000522000F0F3FC9DF8000000F0010000B1FF
:1029500004B901E0641EF1E700BF002000F0BDF8FB
:1029600038BD38B504460020009054B101200090D5
:1029700001226946092000F011FD022000F02AFD25
:1029800006E00220009001226946092000F006FDC1
:10299000FFF7F6FC38BD000010B50446062C42D205
:1029A000DFE804F003091520293500201F4988714C
:1029B00000F03EF838E001201C498871022000F048
:1029C00071F90022111F082000F0CCFC2CE002203D
:1029D0001649887100F066F90022111F082000F0E6
:1029E000C1FC21E00320114988710222C11F082087
:1029F00000F0B8FC18E004200C498871012000F0B8
:102A000051F90122511F082000F0ACFC0CE0052018
:102A100006498871022000F045F90022111F0820A4
:102A200000F0A0FC00E000BF00BF10BD3C01002092
:102A300038B501250020009028241549887102200E
:102A4000009001226946092000F0A8FC0FE0012255
:102A500069463F2000F06AFC9DF8000000F00F007E
:102A600008B9002505E0641E022000F0B3FC002C2C
:102A7000EDD100BF55B14022D143442000F072FC9B
:102A800000226FF04001442000F06CFC38BD0000D3
:102A90003C01002013B582B00C46002001900022BA
:102AA0006FF080014C2000F05DFC7CB104F07F00F1
:102AB00040F080000190012201A94E2000F06EFC40
:102AC000012202A94F2000F069FC05E000226FF00E
:102AD00080014E2000F046FC1FBD10B504462CB10D
:102AE0000822D143432000F03DFC05E000226FF0B6
:102AF0000801432000F036FC10BD000058B500204E
:102B00000090002600BF02226946252000F00EFC3E
:102B10009DF80000304306029DF8010006432EB9DF
:102B20000648406D80680549086158BD0448B0FBFF
:102B3000F6F40248046100BFF7E700003C01002002
:102B400000983A002DE9F041C0B005460E46002439
:102B5000A04600274FF480716846FDF779FC701B92
:102B6000471CBAB26946284600F0E0FB8046B8F13F
:102B7000010F02D140B0BDE8F081002406E01DF84D
:102B80000420291903A0FDF767FB641CBC42F6DB97
:102B900000BFEFE77265673A3078253032583D3034
:102BA00078253032580D0A0008B500200090012227
:102BB0006946104600F0BAFB9DF8000000F00800DE
:102BC00000909DF80000C01000909DF8000008BD26
:102BD00001460020082915D2DFE801F00406080AA2
:102BE0000C0E1012012010E002200EE004200CE078
:102BF00005200AE0082008E00A2006E0142004E08E
:102C0000282002E04FF0FF3000BF00BF70470000F7
:102C100038B50024002000900848446CC4F3072213
:102C20006FF00F012D2000F09DFBE0B2009001221B
:102C300069462E2000F0B2FB38BD00003C010020A8
:102C4000F8B500260025002000900E48446CF021C5
:102C500001EA5416A4EB9400C0F3032546EA0500EC
:102C60008DF80000C4F347008DF80100A4EB940038
:102C7000C0B28DF80200032269462F2000F08EFBBF
:102C8000F8BD00003C01002001B59DF8000004499A
:102C9000086201226946072000F080FB08BD0000A1
:102CA0003C01002010B5044624B1012C08D0022CB0
:102CB00012D10BE00122511F442000F053FB0CE025
:102CC0000022111F442000F04DFB06E00222911F5C
:102CD000442000F047FB00E000BF00BF10BD000033
:102CE00038B5002000900748446C200A8DF8000099
:102CF000E0B28DF8010002226946402000F04EFB50
:102D000038BD00003C01002070B504460D46AAB253
:102D10002146422000F042FB70BD10B5044621461A
:102D2000002000F05CF80021012000F058F80F218D
:102D3000002000F02CF810BD10B5044634B100227C
:102D40006FF01001032000F00DFB04E01022D143CE
:102D5000032000F007FB10BD70B504460D46AAB273
:102D60002146322000F01AFB70BD10B50446204603
:102D7000FFF7EEFC2046FFF71DFC10BD10B5044622
:102D800022466FF03F015A2000F0ECFA10BD2DE909
:102D9000F04104460D460026204604EBD071491050
:102DA000A4EB410161B12E46274604EBD7714910CF
:102DB0001231C8B232466FF00F0100F0D3FA0CE0C6
:102DC0002807060E274604EBD77149101231C8B206
:102DD00032466FF0F00100F0C5FABDE8F08113B59E
:102DE000044604F10A01C8B2012201A900F0D6FA92
:102DF0001CBD10B5044624B1012C0ED0022C23D1E9
:102E000017E000226FF020012D2000F0ABFA102215
:102E1000D1432D2000F0A6FA17E02022D1432D2027
:102E200000F0A0FA00226FF010012D2000F09AFAB5
:102E30000BE01022D1432D2000F094FA2022D14340
:102E40002D2000F08FFA00E000BF00BF10BD000091
:102E500010B50D488069012804D002280CD0032841
:102E60000FD10AE00020FFF780FF0120FFF77DFF70
:102E70000220FFF77AFF05E000BF0020FFF775FF93
:102E800000E000BF00BF10BD3C01002038B5044683
:102E900000200090012C0CD10C20009001226946EA
:102EA0003C2000F07BFA8022D143432000F05AFA04
:102EB00005E000226FF08001432000F053FA38BD96
:102EC00010B5012000F0C2FD0249096888688047FA
:102ED00010BD00003801002070B590B0002400251E
:102EE00000263C2101A8FDF7B3FA14490968086ED1
:102EF00080471BE01248806D001B3C2803DA104815
:102F0000806D051B00E03C250C4800682946C26D19
:102F100001A890470A48C06D011901AA284600F08F
:102F2000E7FB0646012E00D104E02C440448806DE6
:102F3000A042DFDC00BF304610B070BD3801002079
:102F40003C0100200D488069012804D0022803D0EC
:102F5000032810D101E000BF00BF094807494865B8
:102F60000120C870087107490448C1650648006817
:102F70000249886500E000BF00BF70473C010020A7
:102F80001C0000209C0100200005002010B500243A
:102F900010490968886980470E480068816A0120E5
:102FA00088470C490968886E80470A490968086D96
:102FB000804708490968486D804700F07FFDFFF7AA
:102FC0008BFF044603480068816A0020884720463A
:102FD00010BD0000380100201948006808B9012020
:102FE0007047184816490968C1F8AC0016481449DA
:102FF0000968C1F88C00154811490968C1F89400A6
:1030000013480F490968C1F8B00012480C49096813
:10301000C1F8B40010480A490968C1F8B8000F485F
:1030200007490968C1F8A0000D4805490968C1F8B9
:103030009C000C4802490968C1F890000020CFE7C5
:1030400038010020DD3000081D310008C12E0008C5
:10305000953800081D3500085D390008ED38000876
:10306000313200086D37000810B504460420FEF721
:103070004BFA0148046010BD1000002030B5044632
:10308000002504E04FF47A7000F004F86D1CA542AE
:10309000F8D330BD70B5034600224FF0E0267569C5
:1030A0000D4E36685E43B4084FF0E026B16910E07B
:1030B0004FF0E026B06988420BD0884202D20E1A47
:1030C000324402E02E1A0E4432440146A24200D39A
:1030D00000E0EDE700BF70BD1000002010B5002437
:1030E000002000F0B3FC0C4909688868804748B9A3
:1030F00000F0EAF904460CB1012010BD0649096848
:10310000C86B8047012000F0A1FC03490968886969
:1031100080472046F1E700003801002010B500206C
:1031200000F094FC0349096888688047012000F09A
:103130008DFC10BD3801002000BF054A126802F066
:103140004002002AF9D0C2B2014B1B1D1A60704721
:103150000038014000200B498969012904D0022967
:1031600003D0032906D101E000BF00BF0649074A8A
:10317000116001E0012000BF00BF0449096801B9E6
:10318000012070473C0100207C0000203801002015
:1031900070B50023002400210122032119E02348F7
:1031A000C56D481C2D5C2148C06D405C45EA00237C
:1031B0001E48C56DC81C2D5C1C48C66D881C305C43
:1031C00045EA0024E01A012801D1521C00E004E085
:1031D000091D1648806D8842E1DC00BF910020E0A7
:1031E0001248C56D481E2D5C1048C06D405C40EA19
:1031F00005230E48C06D85780C48C06D407845EABF
:103200000020A0EB8200401E084D68642846406CF8
:10321000181A401CAD6DA84201D1002070BD521E8D
:10322000091F0429DCDA0120F8E700003C01002036
:1032300000200C49497801B970470A49C96D8A785C
:103240000849C96D497842EA01200649B1F844109D
:10325000411A491EC1F38701024A82F8381000BFA3
:10326000EAE700003C01002010B50D48406D806881
:103270000B4988620B480068416A00208847094969
:103280000968C86A804707490968086A804705488D
:103290000068416B01208847FFF720FF10BD000048
:1032A0003C010020380100201CB500241CA000684F
:1032B000019000200090032201A90A2000F06EF87E
:1032C000032269460A2000F031F800F0C9F800F046
:1032D00099F904460CB120461CBD00F08FFBFFF7A6
:1032E00031FEFFF737FF04460CB12046F4E70D49E5
:1032F00009680868804704460CB12046ECE7FFF7F0
:10330000B3FF00F007FA04460CB12046E4E7FFF7EC
:1033100063FE002240210448FDF7D8FC2046DBE78D
:103320005152530038010020002001402DE9F041A6
:1033300004460D46164600270EE0F2B208494979C8
:103340004906080E2B462146FDF7D1F910B10020A1
:10335000BDE8F081781CC7B2052FEEDB0120F7E74E
:103360003C010020F8B507460C46154600200090A9
:10337000E6B2012269463846FFF7D8FF9DF8000003
:103380003040009025EA06009DF8001008430090A8
:1033900001226946384600F001F8F8BD2DE9F041F8
:1033A00004460D46164600270EE0F2B20849497958
:1033B0004906080E2B462146FDF7DAF910B1002028
:1033C000BDE8F081781CC7B2052FEEDB0120F7E7DE
:1033D0003C01002010B504462046FDF7C3FA10BD9D
:1033E00070B505460C462CB9002229460548FDF764
:1033F0006DFC06E0012C04D1012229460148FDF7AD
:1034000065FC70BD002001402DE9F04104460D46E9
:10341000002701261CE0012221465720FFF786FFE6
:1034200006462078232806D1012221466920FFF78D
:103430007DFF064605E0012221460020FFF776FFCA
:103440000646012E01D10DB100E003E0781CC7B2A1
:10345000052FE0DB00BF3046BDE8F08170477047C4
:1034600010B500214020FFF7BBFF0220FFF7B2FF9D
:1034700001214020FFF7B4FF0820FFF7ABFF10BD8C
:1034800070B5002401250D490968D1F880008047F6
:1034900004460B48C06A0B490968884202D004F010
:1034A0000F0048B900200649C86208700348006848
:1034B000016F002088470025284670BD3801002094
:1034C0003C010020FC050020002100221248406D34
:1034D0008068114B5B6D5B68C3F1640358436423E0
:1034E000B0FBF3F10C48406D80680B4B5B6D5B6883
:1034F000643358436423B0FBF3F207480069884201
:1035000001D20120704704480069904201D901208E
:10351000F8E70020F6E700003C01002070B5044603
:103520000D461948407808B9012070BD05B10CB9A5
:103530000120FAE71448406B20B1FFF790FF00200C
:103540001149486311490968886980470E484462F7
:103550000563012000F07AFA012000F069F90A4AB7
:1035600092F82400094A1268516E8847074800689B
:10357000416A022088470549096848698047FFF782
:103580006DFF0020D1E700003C0100203801002041
:10359000FDF7B4FB4FF4E010FEF72FFB4820FFF7D8
:1035A00063FD4FF4E13000F035FAFDF7DBF805E09C
:1035B0004FF4FA70FFF762FDFDF72EF8FDF72CF8D7
:1035C0000028F5D10DA0FCF747FEFFF76DFE0BA01C
:1035D000FCF742FE11E0002240210948FDF776FB8E
:1035E0004FF4FA70FFF74AFD012240210448FDF72D
:1035F0006DFB4FF4FA70FFF741FDECE72E0D0A006A
:10360000002001407CB5002001900025009000249E
:1036100000BF65E000216846FFF7F6FE04464CB1A6
:1036200058203249487101216846FFF7EDFE0446F3
:1036300004B157E09DF8000030283BD005DC70B1A4
:10364000012826D0242844D104E0402837D050282F
:103650003FD139E005202549886100207CBD012249
:1036600001A96420FFF762FE9DF8040000F041000C
:10367000012803D11D4988610020EFE79DF804006F
:1036800000F0410020B90220184988610020E5E7D8
:1036900020E0012201A96420FFF748FE9DF8040004
:1036A00000F04100412804D1042010498861002025
:1036B000D4E70FE006200D4988610020CEE70720FF
:1036C0000A4988610020C9E708200849886100206C
:1036D000C4E700BF00BF0220FFF77CFE681CC5B234
:1036E000052D97DB00BF0120B8E700003C0100205A
:1036F00030B503460C46002100BF06E0505C655C17
:10370000A84201D0012030BD491C9942F6D30020C7
:10371000F9E7000010B50024002006494870087041
:10372000FFF736FD08B1012010BD00F005F8044692
:103730002046F9E73C01002010B50024FFF726FCE5
:1037400004466CB90120074948700846816DC16381
:10375000007918B104490968C8688047FFF768FD17
:10376000002010BD3C0100203801002070B590B051
:103770000024002500263C2101A8FCF769FE224810
:103780000068816A012088471F4909688869804765
:103790001D490968086E80471CA0FCF75DFD25E007
:1037A0001F48C06B001B3C2803D21D48C06B061B82
:1037B00000E03C26144800683146C26D01A89047DD
:1037C000002510E001A8415D16A0FCF745FD681C2E
:1037D000C11700EB11710911A0EB011111B913A070
:1037E000FCF73AFD6D1CB542ECDB34440C48C06B71
:1037F000A042D5D804480068816A002088470BA001
:10380000FCF72AFD10B070BD3801002061775F68B9
:1038100061707469635F72616D3A0D0A00000000A7
:103820003C0100203078253032582C000D0A000071
:1038300070B5054600240DB31448007B012815D14E
:1038400013490968486F80471048006A41F26801CF
:1038500048430E49C969B0FBF1F4B32C00DDB32431
:10386000E0B20B4A1268116C88470EE0074A92F8E2
:103870002000074A1268116C884706E0034A92F854
:103880002000034A1268116C884770BD3C0100207B
:103890003801002010B5002400201249C8620CE055
:1038A00000F030F90446012C01D1204610BDFFF78D
:1038B000E7FD04460CB92046F8E70B490968D1F842
:1038C0008800804718B9074880790428E8D005485F
:1038D0008079042804D104480068016F01208847DA
:1038E0000020E3E73C0100203801002010B500244F
:1038F0001848C07800B910BD012016490870164953
:1039000009688869804714480068016F002088476B
:1039100011490968086980470020FFF789FF0E48B0
:103920000068416A04208847002000F08FF80A49A7
:103930000968486980470220FFF74CFDC82000F065
:103940009DF80446012C00D1D5E7FFF7A3FF00BF87
:10395000D1E700003C0100203801002070B504468A
:103960000E4615462348407808B9012070BD0F2D3A
:1039700005DA24B11F4890F83800A04201DA01208E
:10398000F4E71C48406B20B1FFF769FD002019499E
:1039900048631949096888698047164844620120CC
:1039A00000F054F80020FFF743FF124890F824106D
:1039B00011480068426C002090470F4800680021C1
:1039C000426C01209047681EC1B20B480068826CAF
:1039D0000020904708480068016C30468847064838
:1039E0000068416A0120884703490968486980479F
:1039F0000020BBE73C0100203801002008B5AA20C8
:103A00000090012269460020FFF7C8FC0220FFF762
:103A1000E1FC08BD10B5044609480A49086008469B
:103A2000446000218160C160016181610C214161BC
:103A3000FDF74AFE012204490248FDF7D3FE10BDFE
:103A400000380140C80600201A00002070B5054665
:103A500015B1012D05D101E0002404E00548C47A28
:103A600001E0002400BF00BF03480068C16E20468B
:103A7000884770BD3C0100203801002070B5044625
:103A8000002500260CE00C490968D1F88400804725
:103A900006460EB9012505E0641E0220FFF79AFCD8
:103AA000002CF0D100BF2DB903490968886980470F
:103AB000012070BD0020FCE73801002070B5002413
:103AC00000250E490968086E804712E00C48806D99
:103AD000001B3C2803DA0A48806D051B00E03C25EA
:103AE0000749C96D0819054909688A6D2946904733
:103AF0002C440348806DA042E8DC70BD38010020F2
:103B00003C0100202DE9F0410027144804681448C6
:103B1000C56A466C14B90120BDE8F081B54206D2F1
:103B2000601BB04201D2671B08E0374606E0601B0D
:103B3000B0EB960F01D2671B00E0B7080849C96ACD
:103B4000084BC81808490968CA6C394690470448A8
:103B5000C06A38440249C8620020DDE7FC05002045
:103B60003C01002004050020380100200000000076
:103B7000000000000102030406070809000000001D
:103B8000010203043031323334353637383941429B
:103B900043444546403058003031323334353637AF
:103BA000383961626364656640307800040000085B
:103BB00000000000000000020001000010000000F2
:103BC000E03B000800000020000600006C01000837
:103BD000744000080006002068070000C8010008C3
:103BE000115324F432100213013207232E09032249
:103BF000067F1A082D16041406060F600802080531
:103C000005B2FFEF3A0102718B010209136521141D
:103C10000897231B08E10813512E1408B72714082E
:103C2000A9251408312A1B0895141321291B08996A
:103C3000041ADB101AF11C2A8D0419281A95101386
:103C4000D1201408892C1408DF2D1B088F041A5961
:103C5000041A41101A51501A090C1BD1245819107A
:103C60001A1B0C1A11081A7D081A39041A01601A55
:103C7000E31C1AF5281A81042AC974122B02390888
:103C80006A58E50112023F801012550811097609A1
:103C9000770A800A810B2E0B2F0B6110330E1D2B20
:103CA0003845505B636B7175777776736E685F56D6
:103CB0004B3F32241607FAEBDDCFC2B6ABA1999287
:103CC0008D8A89898B8F959CA5AFBAC7D4E2F148BC
:103CD0000C0D1C2A3744505A636A707433381460D0
:103CE000574C4033251708FBECDED0C3B6ABA29986
:103CF000938E335813949CA4AEBAC6D3E1F0FF0C54
:103D00001B2937434F59623348146F6961574C413F
:103D100034261809FBEDDED1C3B7ACA29A33100BE1
:103D20008E949BA4AEB9C5D3E1EF185AF3E5D8CB76
:103D3000BFB4AAA29A95918E8E8E91959BA3ABB596
:103D4000C0CDD9E7F4010F1D2A37434E5760676C89
:103D5000707272716E6A645C53493E3225170AFDB7
:103D6000EFE1D4C7BCB1A89F9993908E8E8F9297A4
:103D70009DA5AEB8C4D0DDEAF80513212E3A465011
:103D80005A62686D7134100B6D68625A51463B2E51
:103D9000211400333EF9F2EBE4DED8D3CFCBC8C612
:103DA000C5C5C5C7C9CCD1D5DBE1E7EEF5FD030A32
:103DB00011181F252A2F3337393B3B3B3A38353210
:103DC0002D28231C160F07101A071624323F4B56B6
:103DD0005F676E7376777775716B645B5145392BCE
:103DE0001D0FB821F2E4D6C8BCB0A69D95908B8972
:103DF000898A8D9298A0AAB5C1CEDBEAF806152370
:103E0000313E4A5533281246392C1E1001F3E5D7AE
:103E1000C9BCB1A69D96908C3338169198A0A9B4D0
:103E2000C0CDDAE9F7051422303D49545E666D7263
:103E300033100A6C655C52473A2D1F11104D0F1E4E
:103E40002C3A47535E676F75797C7C7B78746D651F
:103E50005B504437291A0BFDEEDFD0C3B6AAA097FA
:103E6000908A86848485898E959DA7B3BFCDDBEA31
:103E7000F907162533414D59636B72777B7C7C7A49
:103E800076706960564A3D302113B033FAF4EEE99A
:103E9000E4DFDBD7D4D1D0CFCFCFD0D2D5D9DDE1BD
:103EA000E6EBF1F7FD02080E141A1F23272B2D3025
:103EB000313131302F2C2926211D17120C06380BD9
:103EC00052636D73787A7C7D7D7E0118177D7C7BD3
:103ED000797671685B4726F2C8AE9D938C8886849C
:103EE00083838201181783838485888B919AA9C163
:103EF000E607172634424F5A646D7479361E7C7873
:103F0000726A618A142F201118250D1A27333F4930
:103F1000535B62676B6D6D6C6A655F584F463B2FF4
:103F2000221508F9E9DACCBEB1A69C938C874E48DD
:103F30001684888E969FAAB6C3D1E0EF40535E6682
:103F40006B6E6F71717201B00B71706F6D6A645C32
:103F50004F3917203308111921282F353A3E414493
:103F600045454543403C37322C251D150D04FCF4D6
:103F7000ECE4DCD5CEC9C4C0BDBBBBBBBCBEC2C6B5
:103F8000CBD1D8DFE7EFF76362031AFF011847FED2
:103F9000FEFDFDFCFBFAF9F7F5F4F2F1F1F0F0EFBC
:103FA000EFEFF0F0F1F2F3F4F6F8FBFE01060B127E
:103FB0001A242D33383B3D3D3B38342E261B0EFF53
:103FC000F1E4DAD2CBC5C0BCB8B6B3B1B0AEADACDB
:103FD000ABABAAAAA901AAA80129111015AAAAABDC
:103FE000ACADAEAFB0B2B4B7BABDC2C7CED5DEE9E4
:103FF000F518320C1A2A38434C52575B5E606263E4
:10400000646565666665656462615F5C5955514BC0
:10401000443C33271908F4DECCBCB0A59D95908BA9
:104020008785838101181D8284878B8F959CA4AF1F
:10403000BBCADCF3091D2E3C4751595F64696C6FA4
:1040400071727301182871706E6C6A6867656362BB
:10405000605D5B5854504C463F372E26201A16128E
:104060000F0C0A080706050403030202010141328E
:04407000F700000055
:0400000508000131BD
:00000001FF
